{"abi":[{"type":"constructor","inputs":[],"stateMutability":"nonpayable"},{"type":"function","name":"DEFAULT_ADMIN_ROLE","inputs":[],"outputs":[{"name":"","type":"bytes32","internalType":"bytes32"}],"stateMutability":"view"},{"type":"function","name":"addNewNumber","inputs":[],"outputs":[{"name":"","type":"uint256","internalType":"uint256"}],"stateMutability":"nonpayable"},{"type":"function","name":"checkUpkeep","inputs":[{"name":"checkData","type":"bytes","internalType":"bytes"}],"outputs":[{"name":"upkeepNeeded","type":"bool","internalType":"bool"},{"name":"performData","type":"bytes","internalType":"bytes"}],"stateMutability":"view"},{"type":"function","name":"getRoleAdmin","inputs":[{"name":"role","type":"bytes32","internalType":"bytes32"}],"outputs":[{"name":"","type":"bytes32","internalType":"bytes32"}],"stateMutability":"view"},{"type":"function","name":"grantRole","inputs":[{"name":"role","type":"bytes32","internalType":"bytes32"},{"name":"account","type":"address","internalType":"address"}],"outputs":[],"stateMutability":"nonpayable"},{"type":"function","name":"hasRole","inputs":[{"name":"role","type":"bytes32","internalType":"bytes32"},{"name":"account","type":"address","internalType":"address"}],"outputs":[{"name":"","type":"bool","internalType":"bool"}],"stateMutability":"view"},{"type":"function","name":"modifyAutomationTime","inputs":[{"name":"startAutomationTime_","type":"uint256","internalType":"uint256"}],"outputs":[],"stateMutability":"nonpayable"},{"type":"function","name":"owner","inputs":[],"outputs":[{"name":"","type":"address","internalType":"address"}],"stateMutability":"view"},{"type":"function","name":"performUpkeep","inputs":[{"name":"performData","type":"bytes","internalType":"bytes"}],"outputs":[],"stateMutability":"nonpayable"},{"type":"function","name":"proxiableUUID","inputs":[],"outputs":[{"name":"","type":"bytes32","internalType":"bytes32"}],"stateMutability":"view"},{"type":"function","name":"renounceOwnership","inputs":[],"outputs":[],"stateMutability":"nonpayable"},{"type":"function","name":"renounceRole","inputs":[{"name":"role","type":"bytes32","internalType":"bytes32"},{"name":"account","type":"address","internalType":"address"}],"outputs":[],"stateMutability":"nonpayable"},{"type":"function","name":"revokeRole","inputs":[{"name":"role","type":"bytes32","internalType":"bytes32"},{"name":"account","type":"address","internalType":"address"}],"outputs":[],"stateMutability":"nonpayable"},{"type":"function","name":"supportsInterface","inputs":[{"name":"interfaceId","type":"bytes4","internalType":"bytes4"}],"outputs":[{"name":"","type":"bool","internalType":"bool"}],"stateMutability":"view"},{"type":"function","name":"transferOwnership","inputs":[{"name":"newOwner","type":"address","internalType":"address"}],"outputs":[],"stateMutability":"nonpayable"},{"type":"function","name":"upgradeTo","inputs":[{"name":"newImplementation","type":"address","internalType":"address"}],"outputs":[],"stateMutability":"nonpayable"},{"type":"function","name":"upgradeToAndCall","inputs":[{"name":"newImplementation","type":"address","internalType":"address"},{"name":"data","type":"bytes","internalType":"bytes"}],"outputs":[],"stateMutability":"payable"},{"type":"event","name":"AdminChanged","inputs":[{"name":"previousAdmin","type":"address","indexed":false,"internalType":"address"},{"name":"newAdmin","type":"address","indexed":false,"internalType":"address"}],"anonymous":false},{"type":"event","name":"BeaconUpgraded","inputs":[{"name":"beacon","type":"address","indexed":true,"internalType":"address"}],"anonymous":false},{"type":"event","name":"Initialized","inputs":[{"name":"version","type":"uint8","indexed":false,"internalType":"uint8"}],"anonymous":false},{"type":"event","name":"OwnershipTransferred","inputs":[{"name":"previousOwner","type":"address","indexed":true,"internalType":"address"},{"name":"newOwner","type":"address","indexed":true,"internalType":"address"}],"anonymous":false},{"type":"event","name":"RoleAdminChanged","inputs":[{"name":"role","type":"bytes32","indexed":true,"internalType":"bytes32"},{"name":"previousAdminRole","type":"bytes32","indexed":true,"internalType":"bytes32"},{"name":"newAdminRole","type":"bytes32","indexed":true,"internalType":"bytes32"}],"anonymous":false},{"type":"event","name":"RoleGranted","inputs":[{"name":"role","type":"bytes32","indexed":true,"internalType":"bytes32"},{"name":"account","type":"address","indexed":true,"internalType":"address"},{"name":"sender","type":"address","indexed":true,"internalType":"address"}],"anonymous":false},{"type":"event","name":"RoleRevoked","inputs":[{"name":"role","type":"bytes32","indexed":true,"internalType":"bytes32"},{"name":"account","type":"address","indexed":true,"internalType":"address"},{"name":"sender","type":"address","indexed":true,"internalType":"address"}],"anonymous":false},{"type":"event","name":"Upgraded","inputs":[{"name":"implementation","type":"address","indexed":true,"internalType":"address"}],"anonymous":false},{"type":"error","name":"remainLastID","inputs":[]}],"bytecode":{"object":"0x60a06040523073ffffffffffffffffffffffffffffffffffffffff1660809073ffffffffffffffffffffffffffffffffffffffff16815250348015610042575f5ffd5b503360c95f6101000a81548173ffffffffffffffffffffffffffffffffffffffff021916908373ffffffffffffffffffffffffffffffffffffffff16021790555061009360cb6100b460201b60201c565b6100a16100bf60201b60201c565b6100af61011d60201b60201c565b610341565b5f815f018190555050565b5f60019054906101000a900460ff1661010d576040517f08c379a000000000000000000000000000000000000000000000000000000000815260040161010490610323565b60405180910390fd5b61011b61016d60201b60201c565b565b5f60019054906101000a900460ff1661016b576040517f08c379a000000000000000000000000000000000000000000000000000000000815260040161016290610323565b60405180910390fd5b565b5f60019054906101000a900460ff166101bb576040517f08c379a00000000000000000000000000000000000000000000000000000000081526004016101b290610323565b60405180910390fd5b6101d76101cc6101d960201b60201c565b6101e060201b60201c565b565b5f33905090565b5f60335f9054906101000a900473ffffffffffffffffffffffffffffffffffffffff1690508160335f6101000a81548173ffffffffffffffffffffffffffffffffffffffff021916908373ffffffffffffffffffffffffffffffffffffffff1602179055508173ffffffffffffffffffffffffffffffffffffffff168173ffffffffffffffffffffffffffffffffffffffff167f8be0079c531659141344cd1fd0a4f28419497f9722a3daafe3b4186f6b6457e060405160405180910390a35050565b5f82825260208201905092915050565b7f496e697469616c697a61626c653a20636f6e7472616374206973206e6f7420695f8201527f6e697469616c697a696e67000000000000000000000000000000000000000000602082015250565b5f61030d602b836102a3565b9150610318826102b3565b604082019050919050565b5f6020820190508181035f83015261033a81610301565b9050919050565b6080516127bc6103755f395f81816106dd0152818161076b01528181610952015281816109e00152610a8f01526127bc5ff3fe6080604052600436106100fd575f3560e01c806352d1902d116100945780638da5cb5b116100635780638da5cb5b1461030457806391d148541461032e578063a217fddf1461036a578063d547741f14610394578063f2fde38b146103bc576100fd565b806352d1902d1461025f5780636b2d60c9146102895780636e04ff0d146102b1578063715018a6146102ee576100fd565b806336568abe116100d057806336568abe146101cb5780633659cfe6146101f35780634585e33b1461021b5780634f1ef28614610243576100fd565b806301ffc9a714610101578063065e5d021461013d578063248a9ca3146101675780632f2ff15d146101a3575b5f5ffd5b34801561010c575f5ffd5b5061012760048036038101906101229190611878565b6103e4565b60405161013491906118bd565b60405180910390f35b348015610148575f5ffd5b5061015161045d565b60405161015e91906118ee565b60405180910390f35b348015610172575f5ffd5b5061018d6004803603810190610188919061193a565b61061a565b60405161019a9190611974565b60405180910390f35b3480156101ae575f5ffd5b506101c960048036038101906101c491906119e7565b610637565b005b3480156101d6575f5ffd5b506101f160048036038101906101ec91906119e7565b610658565b005b3480156101fe575f5ffd5b5061021960048036038101906102149190611a25565b6106db565b005b348015610226575f5ffd5b50610241600480360381019061023c9190611ab1565b610861565b005b61025d60048036038101906102589190611c34565b610950565b005b34801561026a575f5ffd5b50610273610a8c565b6040516102809190611974565b60405180910390f35b348015610294575f5ffd5b506102af60048036038101906102aa9190611cb8565b610b43565b005b3480156102bc575f5ffd5b506102d760048036038101906102d29190611ab1565b610b55565b6040516102e5929190611d43565b60405180910390f35b3480156102f9575f5ffd5b50610302610bbf565b005b34801561030f575f5ffd5b50610318610bd2565b6040516103259190611d80565b60405180910390f35b348015610339575f5ffd5b50610354600480360381019061034f91906119e7565b610bfa565b60405161036191906118bd565b60405180910390f35b348015610375575f5ffd5b5061037e610c5e565b60405161038b9190611974565b60405180910390f35b34801561039f575f5ffd5b506103ba60048036038101906103b591906119e7565b610c64565b005b3480156103c7575f5ffd5b506103e260048036038101906103dd9190611a25565b610c85565b005b5f7f7965db0b000000000000000000000000000000000000000000000000000000007bffffffffffffffffffffffffffffffffffffffffffffffffffffffff1916827bffffffffffffffffffffffffffffffffffffffffffffffffffffffff19161480610456575061045582610d07565b5b9050919050565b5f60cc5f60cb5f015481526020019081526020015f205f9054906101000a900460ff166104b6576040517f95bac94e00000000000000000000000000000000000000000000000000000000815260040160405180910390fd5b6104c060cb610d70565b60405180610100016040528060cb5f015481526020013373ffffffffffffffffffffffffffffffffffffffff1681526020015f81526020015f81526020015f151581526020015f81526020015f151581526020015f81525060cd5f60cb5f015481526020019081526020015f205f820151815f01556020820151816001015f6101000a81548173ffffffffffffffffffffffffffffffffffffffff021916908373ffffffffffffffffffffffffffffffffffffffff16021790555060408201518160020155606082015181600301556080820151816004015f6101000a81548160ff02191690831515021790555060a0820151816005015560c0820151816006015f6101000a81548160ff02191690831515021790555060e082015181600701559050505f60cc5f60cb5f015481526020019081526020015f205f6101000a81548160ff02191690831515021790555060cb5f0154905090565b5f60975f8381526020019081526020015f20600101549050919050565b6106408261061a565b61064981610d84565b6106538383610d98565b505050565b610660610e73565b73ffffffffffffffffffffffffffffffffffffffff168173ffffffffffffffffffffffffffffffffffffffff16146106cd576040517f08c379a00000000000000000000000000000000000000000000000000000000081526004016106c490611e19565b60405180910390fd5b6106d78282610e7a565b5050565b7f000000000000000000000000000000000000000000000000000000000000000073ffffffffffffffffffffffffffffffffffffffff163073ffffffffffffffffffffffffffffffffffffffff1603610769576040517f08c379a000000000000000000000000000000000000000000000000000000000815260040161076090611ea7565b60405180910390fd5b7f000000000000000000000000000000000000000000000000000000000000000073ffffffffffffffffffffffffffffffffffffffff166107a8610f55565b73ffffffffffffffffffffffffffffffffffffffff16146107fe576040517f08c379a00000000000000000000000000000000000000000000000000000000081526004016107f590611f35565b60405180910390fd5b61080781610fa8565b61085e815f67ffffffffffffffff81111561082557610824611b10565b5b6040519080825280601f01601f1916602001820160405280156108575781602001600182028036833780820191505090505b505f610fab565b50565b5f82828101906108719190612048565b9050607b8160400181815250508060cd5f60cb5f015481526020019081526020015f205f820151815f01556020820151816001015f6101000a81548173ffffffffffffffffffffffffffffffffffffffff021916908373ffffffffffffffffffffffffffffffffffffffff16021790555060408201518160020155606082015181600301556080820151816004015f6101000a81548160ff02191690831515021790555060a0820151816005015560c0820151816006015f6101000a81548160ff02191690831515021790555060e08201518160070155905050505050565b7f000000000000000000000000000000000000000000000000000000000000000073ffffffffffffffffffffffffffffffffffffffff163073ffffffffffffffffffffffffffffffffffffffff16036109de576040517f08c379a00000000000000000000000000000000000000000000000000000000081526004016109d590611ea7565b60405180910390fd5b7f000000000000000000000000000000000000000000000000000000000000000073ffffffffffffffffffffffffffffffffffffffff16610a1d610f55565b73ffffffffffffffffffffffffffffffffffffffff1614610a73576040517f08c379a0000000000000000000000000000000000000000000000000000000008152600401610a6a90611f35565b60405180910390fd5b610a7c82610fa8565b610a8882826001610fab565b5050565b5f7f000000000000000000000000000000000000000000000000000000000000000073ffffffffffffffffffffffffffffffffffffffff163073ffffffffffffffffffffffffffffffffffffffff1614610b1b576040517f08c379a0000000000000000000000000000000000000000000000000000000008152600401610b12906120e4565b60405180910390fd5b7f360894a13ba1a3210667c828492db98dca3e2076cc3735a920a3ca505d382bbc5f1b905090565b610b4b611115565b8060ca8190555050565b5f60605f60ca54118015610b6b57504260ca5411155b15610bb8576001915060cc5f60cb5f015481526020019081526020015f205f9054906101000a900460ff16604051602001610ba691906118bd565b60405160208183030381529060405290505b9250929050565b610bc7611115565b610bd05f611193565b565b5f60335f9054906101000a900473ffffffffffffffffffffffffffffffffffffffff16905090565b5f60975f8481526020019081526020015f205f015f8373ffffffffffffffffffffffffffffffffffffffff1673ffffffffffffffffffffffffffffffffffffffff1681526020019081526020015f205f9054906101000a900460ff16905092915050565b5f5f1b81565b610c6d8261061a565b610c7681610d84565b610c808383610e7a565b505050565b610c8d611115565b5f73ffffffffffffffffffffffffffffffffffffffff168173ffffffffffffffffffffffffffffffffffffffff1603610cfb576040517f08c379a0000000000000000000000000000000000000000000000000000000008152600401610cf290612172565b60405180910390fd5b610d0481611193565b50565b5f7f01ffc9a7000000000000000000000000000000000000000000000000000000007bffffffffffffffffffffffffffffffffffffffffffffffffffffffff1916827bffffffffffffffffffffffffffffffffffffffffffffffffffffffff1916149050919050565b6001815f015f828254019250508190555050565b610d9581610d90610e73565b611256565b50565b610da28282610bfa565b610e6f57600160975f8481526020019081526020015f205f015f8373ffffffffffffffffffffffffffffffffffffffff1673ffffffffffffffffffffffffffffffffffffffff1681526020019081526020015f205f6101000a81548160ff021916908315150217905550610e14610e73565b73ffffffffffffffffffffffffffffffffffffffff168173ffffffffffffffffffffffffffffffffffffffff16837f2f8788117e7eff1d82e926ec794901d17c78024a50270940304540a733656f0d60405160405180910390a45b5050565b5f33905090565b610e848282610bfa565b15610f51575f60975f8481526020019081526020015f205f015f8373ffffffffffffffffffffffffffffffffffffffff1673ffffffffffffffffffffffffffffffffffffffff1681526020019081526020015f205f6101000a81548160ff021916908315150217905550610ef6610e73565b73ffffffffffffffffffffffffffffffffffffffff168173ffffffffffffffffffffffffffffffffffffffff16837ff6391f5c32d9c69d2a47ea670b442974b53935d1edc7fd64eb21e047a839171b60405160405180910390a45b5050565b5f610f817f360894a13ba1a3210667c828492db98dca3e2076cc3735a920a3ca505d382bbc5f1b6112da565b5f015f9054906101000a900473ffffffffffffffffffffffffffffffffffffffff16905090565b50565b610fd67f4910fdfa16fed3260ed0e7147f7cc6da11a60208b5b9406d12a635614ffd91435f1b6112e3565b5f015f9054906101000a900460ff1615610ff857610ff3836112ec565b611110565b8273ffffffffffffffffffffffffffffffffffffffff166352d1902d6040518163ffffffff1660e01b8152600401602060405180830381865afa92505050801561106057506040513d601f19601f8201168201806040525081019061105d91906121a4565b60015b61109f576040517f08c379a00000000000000000000000000000000000000000000000000000000081526004016110969061223f565b60405180910390fd5b7f360894a13ba1a3210667c828492db98dca3e2076cc3735a920a3ca505d382bbc5f1b8114611103576040517f08c379a00000000000000000000000000000000000000000000000000000000081526004016110fa906122cd565b60405180910390fd5b5061110f8383836113a2565b5b505050565b61111d610e73565b73ffffffffffffffffffffffffffffffffffffffff1661113b610bd2565b73ffffffffffffffffffffffffffffffffffffffff1614611191576040517f08c379a000000000000000000000000000000000000000000000000000000000815260040161118890612335565b60405180910390fd5b565b5f60335f9054906101000a900473ffffffffffffffffffffffffffffffffffffffff1690508160335f6101000a81548173ffffffffffffffffffffffffffffffffffffffff021916908373ffffffffffffffffffffffffffffffffffffffff1602179055508173ffffffffffffffffffffffffffffffffffffffff168173ffffffffffffffffffffffffffffffffffffffff167f8be0079c531659141344cd1fd0a4f28419497f9722a3daafe3b4186f6b6457e060405160405180910390a35050565b6112608282610bfa565b6112d65761126d816113cd565b61127a835f1c60206113fa565b60405160200161128b92919061242b565b6040516020818303038152906040526040517f08c379a00000000000000000000000000000000000000000000000000000000081526004016112cd919061249c565b60405180910390fd5b5050565b5f819050919050565b5f819050919050565b6112f58161162f565b611334576040517f08c379a000000000000000000000000000000000000000000000000000000000815260040161132b9061252c565b60405180910390fd5b806113607f360894a13ba1a3210667c828492db98dca3e2076cc3735a920a3ca505d382bbc5f1b6112da565b5f015f6101000a81548173ffffffffffffffffffffffffffffffffffffffff021916908373ffffffffffffffffffffffffffffffffffffffff16021790555050565b6113ab83611651565b5f825111806113b75750805b156113c8576113c683836116a0565b505b505050565b60606113f38273ffffffffffffffffffffffffffffffffffffffff16601460ff166113fa565b9050919050565b60605f600283600261140c9190612577565b61141691906125b8565b67ffffffffffffffff81111561142f5761142e611b10565b5b6040519080825280601f01601f1916602001820160405280156114615781602001600182028036833780820191505090505b5090507f3000000000000000000000000000000000000000000000000000000000000000815f81518110611498576114976125eb565b5b60200101907effffffffffffffffffffffffffffffffffffffffffffffffffffffffffffff191690815f1a9053507f7800000000000000000000000000000000000000000000000000000000000000816001815181106114fb576114fa6125eb565b5b60200101907effffffffffffffffffffffffffffffffffffffffffffffffffffffffffffff191690815f1a9053505f60018460026115399190612577565b61154391906125b8565b90505b60018111156115e2577f3031323334353637383961626364656600000000000000000000000000000000600f861660108110611585576115846125eb565b5b1a60f81b82828151811061159c5761159b6125eb565b5b60200101907effffffffffffffffffffffffffffffffffffffffffffffffffffffffffffff191690815f1a905350600485901c9450806115db90612618565b9050611546565b505f8414611625576040517f08c379a000000000000000000000000000000000000000000000000000000000815260040161161c90612689565b60405180910390fd5b8091505092915050565b5f5f8273ffffffffffffffffffffffffffffffffffffffff163b119050919050565b61165a816112ec565b8073ffffffffffffffffffffffffffffffffffffffff167fbc7cd75a20ee27fd9adebab32041f755214dbc6bffa90cc0225b39da2e5c2d3b60405160405180910390a250565b60606116c58383604051806060016040528060278152602001612760602791396116cd565b905092915050565b60605f5f8573ffffffffffffffffffffffffffffffffffffffff16856040516116f691906126e1565b5f60405180830381855af49150503d805f811461172e576040519150601f19603f3d011682016040523d82523d5f602084013e611733565b606091505b50915091506117448683838761174f565b925050509392505050565b606083156117b0575f8351036117a8576117688561162f565b6117a7576040517f08c379a000000000000000000000000000000000000000000000000000000000815260040161179e90612741565b60405180910390fd5b5b8290506117bb565b6117ba83836117c3565b5b949350505050565b5f825111156117d55781518083602001fd5b806040517f08c379a0000000000000000000000000000000000000000000000000000000008152600401611809919061249c565b60405180910390fd5b5f604051905090565b5f5ffd5b5f5ffd5b5f7fffffffff0000000000000000000000000000000000000000000000000000000082169050919050565b61185781611823565b8114611861575f5ffd5b50565b5f813590506118728161184e565b92915050565b5f6020828403121561188d5761188c61181b565b5b5f61189a84828501611864565b91505092915050565b5f8115159050919050565b6118b7816118a3565b82525050565b5f6020820190506118d05f8301846118ae565b92915050565b5f819050919050565b6118e8816118d6565b82525050565b5f6020820190506119015f8301846118df565b92915050565b5f819050919050565b61191981611907565b8114611923575f5ffd5b50565b5f8135905061193481611910565b92915050565b5f6020828403121561194f5761194e61181b565b5b5f61195c84828501611926565b91505092915050565b61196e81611907565b82525050565b5f6020820190506119875f830184611965565b92915050565b5f73ffffffffffffffffffffffffffffffffffffffff82169050919050565b5f6119b68261198d565b9050919050565b6119c6816119ac565b81146119d0575f5ffd5b50565b5f813590506119e1816119bd565b92915050565b5f5f604083850312156119fd576119fc61181b565b5b5f611a0a85828601611926565b9250506020611a1b858286016119d3565b9150509250929050565b5f60208284031215611a3a57611a3961181b565b5b5f611a47848285016119d3565b91505092915050565b5f5ffd5b5f5ffd5b5f5ffd5b5f5f83601f840112611a7157611a70611a50565b5b8235905067ffffffffffffffff811115611a8e57611a8d611a54565b5b602083019150836001820283011115611aaa57611aa9611a58565b5b9250929050565b5f5f60208385031215611ac757611ac661181b565b5b5f83013567ffffffffffffffff811115611ae457611ae361181f565b5b611af085828601611a5c565b92509250509250929050565b5f5ffd5b5f601f19601f8301169050919050565b7f4e487b71000000000000000000000000000000000000000000000000000000005f52604160045260245ffd5b611b4682611b00565b810181811067ffffffffffffffff82111715611b6557611b64611b10565b5b80604052505050565b5f611b77611812565b9050611b838282611b3d565b919050565b5f67ffffffffffffffff821115611ba257611ba1611b10565b5b611bab82611b00565b9050602081019050919050565b828183375f83830152505050565b5f611bd8611bd384611b88565b611b6e565b905082815260208101848484011115611bf457611bf3611afc565b5b611bff848285611bb8565b509392505050565b5f82601f830112611c1b57611c1a611a50565b5b8135611c2b848260208601611bc6565b91505092915050565b5f5f60408385031215611c4a57611c4961181b565b5b5f611c57858286016119d3565b925050602083013567ffffffffffffffff811115611c7857611c7761181f565b5b611c8485828601611c07565b9150509250929050565b611c97816118d6565b8114611ca1575f5ffd5b50565b5f81359050611cb281611c8e565b92915050565b5f60208284031215611ccd57611ccc61181b565b5b5f611cda84828501611ca4565b91505092915050565b5f81519050919050565b5f82825260208201905092915050565b8281835e5f83830152505050565b5f611d1582611ce3565b611d1f8185611ced565b9350611d2f818560208601611cfd565b611d3881611b00565b840191505092915050565b5f604082019050611d565f8301856118ae565b8181036020830152611d688184611d0b565b90509392505050565b611d7a816119ac565b82525050565b5f602082019050611d935f830184611d71565b92915050565b5f82825260208201905092915050565b7f416363657373436f6e74726f6c3a2063616e206f6e6c792072656e6f756e63655f8201527f20726f6c657320666f722073656c660000000000000000000000000000000000602082015250565b5f611e03602f83611d99565b9150611e0e82611da9565b604082019050919050565b5f6020820190508181035f830152611e3081611df7565b9050919050565b7f46756e6374696f6e206d7573742062652063616c6c6564207468726f756768205f8201527f64656c656761746563616c6c0000000000000000000000000000000000000000602082015250565b5f611e91602c83611d99565b9150611e9c82611e37565b604082019050919050565b5f6020820190508181035f830152611ebe81611e85565b9050919050565b7f46756e6374696f6e206d7573742062652063616c6c6564207468726f756768205f8201527f6163746976652070726f78790000000000000000000000000000000000000000602082015250565b5f611f1f602c83611d99565b9150611f2a82611ec5565b604082019050919050565b5f6020820190508181035f830152611f4c81611f13565b9050919050565b5f5ffd5b611f60816118a3565b8114611f6a575f5ffd5b50565b5f81359050611f7b81611f57565b92915050565b5f6101008284031215611f9757611f96611f53565b5b611fa2610100611b6e565b90505f611fb184828501611ca4565b5f830152506020611fc4848285016119d3565b6020830152506040611fd884828501611ca4565b6040830152506060611fec84828501611ca4565b606083015250608061200084828501611f6d565b60808301525060a061201484828501611ca4565b60a08301525060c061202884828501611f6d565b60c08301525060e061203c84828501611ca4565b60e08301525092915050565b5f610100828403121561205e5761205d61181b565b5b5f61206b84828501611f81565b91505092915050565b7f555550535570677261646561626c653a206d757374206e6f742062652063616c5f8201527f6c6564207468726f7567682064656c656761746563616c6c0000000000000000602082015250565b5f6120ce603883611d99565b91506120d982612074565b604082019050919050565b5f6020820190508181035f8301526120fb816120c2565b9050919050565b7f4f776e61626c653a206e6577206f776e657220697320746865207a65726f20615f8201527f6464726573730000000000000000000000000000000000000000000000000000602082015250565b5f61215c602683611d99565b915061216782612102565b604082019050919050565b5f6020820190508181035f83015261218981612150565b9050919050565b5f8151905061219e81611910565b92915050565b5f602082840312156121b9576121b861181b565b5b5f6121c684828501612190565b91505092915050565b7f45524331393637557067726164653a206e657720696d706c656d656e746174695f8201527f6f6e206973206e6f742055555053000000000000000000000000000000000000602082015250565b5f612229602e83611d99565b9150612234826121cf565b604082019050919050565b5f6020820190508181035f8301526122568161221d565b9050919050565b7f45524331393637557067726164653a20756e737570706f727465642070726f785f8201527f6961626c65555549440000000000000000000000000000000000000000000000602082015250565b5f6122b7602983611d99565b91506122c28261225d565b604082019050919050565b5f6020820190508181035f8301526122e4816122ab565b9050919050565b7f4f776e61626c653a2063616c6c6572206973206e6f7420746865206f776e65725f82015250565b5f61231f602083611d99565b915061232a826122eb565b602082019050919050565b5f6020820190508181035f83015261234c81612313565b9050919050565b5f81905092915050565b7f416363657373436f6e74726f6c3a206163636f756e74200000000000000000005f82015250565b5f612391601783612353565b915061239c8261235d565b601782019050919050565b5f81519050919050565b5f6123bb826123a7565b6123c58185612353565b93506123d5818560208601611cfd565b80840191505092915050565b7f206973206d697373696e6720726f6c65200000000000000000000000000000005f82015250565b5f612415601183612353565b9150612420826123e1565b601182019050919050565b5f61243582612385565b915061244182856123b1565b915061244c82612409565b915061245882846123b1565b91508190509392505050565b5f61246e826123a7565b6124788185611d99565b9350612488818560208601611cfd565b61249181611b00565b840191505092915050565b5f6020820190508181035f8301526124b48184612464565b905092915050565b7f455243313936373a206e657720696d706c656d656e746174696f6e206973206e5f8201527f6f74206120636f6e747261637400000000000000000000000000000000000000602082015250565b5f612516602d83611d99565b9150612521826124bc565b604082019050919050565b5f6020820190508181035f8301526125438161250a565b9050919050565b7f4e487b71000000000000000000000000000000000000000000000000000000005f52601160045260245ffd5b5f612581826118d6565b915061258c836118d6565b925082820261259a816118d6565b915082820484148315176125b1576125b061254a565b5b5092915050565b5f6125c2826118d6565b91506125cd836118d6565b92508282019050808211156125e5576125e461254a565b5b92915050565b7f4e487b71000000000000000000000000000000000000000000000000000000005f52603260045260245ffd5b5f612622826118d6565b91505f82036126345761263361254a565b5b600182039050919050565b7f537472696e67733a20686578206c656e67746820696e73756666696369656e745f82015250565b5f612673602083611d99565b915061267e8261263f565b602082019050919050565b5f6020820190508181035f8301526126a081612667565b9050919050565b5f81905092915050565b5f6126bb82611ce3565b6126c581856126a7565b93506126d5818560208601611cfd565b80840191505092915050565b5f6126ec82846126b1565b915081905092915050565b7f416464726573733a2063616c6c20746f206e6f6e2d636f6e74726163740000005f82015250565b5f61272b601d83611d99565b9150612736826126f7565b602082019050919050565b5f6020820190508181035f8301526127588161271f565b905091905056fe416464726573733a206c6f772d6c6576656c2064656c65676174652063616c6c206661696c6564a264697066735822122033147be18ba83ee5d14cd78e9f14b0b84711da50583df66708b02f8cdbd6b75264736f6c634300081e0033","linkReferences":{}},"methodIdentifiers":{"DEFAULT_ADMIN_ROLE()":"a217fddf","addNewNumber()":"065e5d02","checkUpkeep(bytes)":"6e04ff0d","getRoleAdmin(bytes32)":"248a9ca3","grantRole(bytes32,address)":"2f2ff15d","hasRole(bytes32,address)":"91d14854","modifyAutomationTime(uint256)":"6b2d60c9","owner()":"8da5cb5b","performUpkeep(bytes)":"4585e33b","proxiableUUID()":"52d1902d","renounceOwnership()":"715018a6","renounceRole(bytes32,address)":"36568abe","revokeRole(bytes32,address)":"d547741f","supportsInterface(bytes4)":"01ffc9a7","transferOwnership(address)":"f2fde38b","upgradeTo(address)":"3659cfe6","upgradeToAndCall(address,bytes)":"4f1ef286"},"id":56}