{"abi":[{"type":"constructor","inputs":[],"stateMutability":"nonpayable"},{"type":"function","name":"DEFAULT_ADMIN_ROLE","inputs":[],"outputs":[{"name":"","type":"bytes32","internalType":"bytes32"}],"stateMutability":"view"},{"type":"function","name":"addNewNumber","inputs":[],"outputs":[{"name":"","type":"uint256","internalType":"uint256"}],"stateMutability":"nonpayable"},{"type":"function","name":"checkUpkeep","inputs":[{"name":"checkData","type":"bytes","internalType":"bytes"}],"outputs":[{"name":"upkeepNeeded","type":"bool","internalType":"bool"},{"name":"performData","type":"bytes","internalType":"bytes"}],"stateMutability":"view"},{"type":"function","name":"getRoleAdmin","inputs":[{"name":"role","type":"bytes32","internalType":"bytes32"}],"outputs":[{"name":"","type":"bytes32","internalType":"bytes32"}],"stateMutability":"view"},{"type":"function","name":"grantRole","inputs":[{"name":"role","type":"bytes32","internalType":"bytes32"},{"name":"account","type":"address","internalType":"address"}],"outputs":[],"stateMutability":"nonpayable"},{"type":"function","name":"hasRole","inputs":[{"name":"role","type":"bytes32","internalType":"bytes32"},{"name":"account","type":"address","internalType":"address"}],"outputs":[{"name":"","type":"bool","internalType":"bool"}],"stateMutability":"view"},{"type":"function","name":"modifyAutomationTime","inputs":[{"name":"startAutomationTime_","type":"uint256","internalType":"uint256"}],"outputs":[],"stateMutability":"nonpayable"},{"type":"function","name":"owner","inputs":[],"outputs":[{"name":"","type":"address","internalType":"address"}],"stateMutability":"view"},{"type":"function","name":"performUpkeep","inputs":[{"name":"performData","type":"bytes","internalType":"bytes"}],"outputs":[],"stateMutability":"nonpayable"},{"type":"function","name":"proxiableUUID","inputs":[],"outputs":[{"name":"","type":"bytes32","internalType":"bytes32"}],"stateMutability":"view"},{"type":"function","name":"renounceOwnership","inputs":[],"outputs":[],"stateMutability":"nonpayable"},{"type":"function","name":"renounceRole","inputs":[{"name":"role","type":"bytes32","internalType":"bytes32"},{"name":"account","type":"address","internalType":"address"}],"outputs":[],"stateMutability":"nonpayable"},{"type":"function","name":"revokeRole","inputs":[{"name":"role","type":"bytes32","internalType":"bytes32"},{"name":"account","type":"address","internalType":"address"}],"outputs":[],"stateMutability":"nonpayable"},{"type":"function","name":"supportsInterface","inputs":[{"name":"interfaceId","type":"bytes4","internalType":"bytes4"}],"outputs":[{"name":"","type":"bool","internalType":"bool"}],"stateMutability":"view"},{"type":"function","name":"transferOwnership","inputs":[{"name":"newOwner","type":"address","internalType":"address"}],"outputs":[],"stateMutability":"nonpayable"},{"type":"function","name":"upgradeTo","inputs":[{"name":"newImplementation","type":"address","internalType":"address"}],"outputs":[],"stateMutability":"nonpayable"},{"type":"function","name":"upgradeToAndCall","inputs":[{"name":"newImplementation","type":"address","internalType":"address"},{"name":"data","type":"bytes","internalType":"bytes"}],"outputs":[],"stateMutability":"payable"},{"type":"event","name":"AdminChanged","inputs":[{"name":"previousAdmin","type":"address","indexed":false,"internalType":"address"},{"name":"newAdmin","type":"address","indexed":false,"internalType":"address"}],"anonymous":false},{"type":"event","name":"BeaconUpgraded","inputs":[{"name":"beacon","type":"address","indexed":true,"internalType":"address"}],"anonymous":false},{"type":"event","name":"Initialized","inputs":[{"name":"version","type":"uint8","indexed":false,"internalType":"uint8"}],"anonymous":false},{"type":"event","name":"OwnershipTransferred","inputs":[{"name":"previousOwner","type":"address","indexed":true,"internalType":"address"},{"name":"newOwner","type":"address","indexed":true,"internalType":"address"}],"anonymous":false},{"type":"event","name":"RoleAdminChanged","inputs":[{"name":"role","type":"bytes32","indexed":true,"internalType":"bytes32"},{"name":"previousAdminRole","type":"bytes32","indexed":true,"internalType":"bytes32"},{"name":"newAdminRole","type":"bytes32","indexed":true,"internalType":"bytes32"}],"anonymous":false},{"type":"event","name":"RoleGranted","inputs":[{"name":"role","type":"bytes32","indexed":true,"internalType":"bytes32"},{"name":"account","type":"address","indexed":true,"internalType":"address"},{"name":"sender","type":"address","indexed":true,"internalType":"address"}],"anonymous":false},{"type":"event","name":"RoleRevoked","inputs":[{"name":"role","type":"bytes32","indexed":true,"internalType":"bytes32"},{"name":"account","type":"address","indexed":true,"internalType":"address"},{"name":"sender","type":"address","indexed":true,"internalType":"address"}],"anonymous":false},{"type":"event","name":"Upgraded","inputs":[{"name":"implementation","type":"address","indexed":true,"internalType":"address"}],"anonymous":false},{"type":"error","name":"remainLastID","inputs":[]}],"bytecode":{"object":"0x60a06040523073ffffffffffffffffffffffffffffffffffffffff1660809073ffffffffffffffffffffffffffffffffffffffff16815250348015610042575f5ffd5b503360c95f6101000a81548173ffffffffffffffffffffffffffffffffffffffff021916908373ffffffffffffffffffffffffffffffffffffffff16021790555061009360cb61009860201b60201c565b6100a3565b5f815f018190555050565b6080516128ab6100d75f395f81816106dd0152818161076b01528181610952015281816109e00152610a8f01526128ab5ff3fe6080604052600436106100fd575f3560e01c806352d1902d116100945780638da5cb5b116100635780638da5cb5b1461030457806391d148541461032e578063a217fddf1461036a578063d547741f14610394578063f2fde38b146103bc576100fd565b806352d1902d1461025f5780636b2d60c9146102895780636e04ff0d146102b1578063715018a6146102ee576100fd565b806336568abe116100d057806336568abe146101cb5780633659cfe6146101f35780634585e33b1461021b5780634f1ef28614610243576100fd565b806301ffc9a714610101578063065e5d021461013d578063248a9ca3146101675780632f2ff15d146101a3575b5f5ffd5b34801561010c575f5ffd5b50610127600480360381019061012291906118ff565b6103e4565b6040516101349190611944565b60405180910390f35b348015610148575f5ffd5b5061015161045d565b60405161015e9190611975565b60405180910390f35b348015610172575f5ffd5b5061018d600480360381019061018891906119c1565b61061a565b60405161019a91906119fb565b60405180910390f35b3480156101ae575f5ffd5b506101c960048036038101906101c49190611a6e565b610637565b005b3480156101d6575f5ffd5b506101f160048036038101906101ec9190611a6e565b610658565b005b3480156101fe575f5ffd5b5061021960048036038101906102149190611aac565b6106db565b005b348015610226575f5ffd5b50610241600480360381019061023c9190611b38565b610861565b005b61025d60048036038101906102589190611cbb565b610950565b005b34801561026a575f5ffd5b50610273610a8c565b60405161028091906119fb565b60405180910390f35b348015610294575f5ffd5b506102af60048036038101906102aa9190611d3f565b610b43565b005b3480156102bc575f5ffd5b506102d760048036038101906102d29190611b38565b610bdc565b6040516102e5929190611dca565b60405180910390f35b3480156102f9575f5ffd5b50610302610c46565b005b34801561030f575f5ffd5b50610318610c59565b6040516103259190611e07565b60405180910390f35b348015610339575f5ffd5b50610354600480360381019061034f9190611a6e565b610c81565b6040516103619190611944565b60405180910390f35b348015610375575f5ffd5b5061037e610ce5565b60405161038b91906119fb565b60405180910390f35b34801561039f575f5ffd5b506103ba60048036038101906103b59190611a6e565b610ceb565b005b3480156103c7575f5ffd5b506103e260048036038101906103dd9190611aac565b610d0c565b005b5f7f7965db0b000000000000000000000000000000000000000000000000000000007bffffffffffffffffffffffffffffffffffffffffffffffffffffffff1916827bffffffffffffffffffffffffffffffffffffffffffffffffffffffff19161480610456575061045582610d8e565b5b9050919050565b5f60cc5f60cb5f015481526020019081526020015f205f9054906101000a900460ff166104b6576040517f95bac94e00000000000000000000000000000000000000000000000000000000815260040160405180910390fd5b6104c060cb610df7565b60405180610100016040528060cb5f015481526020013373ffffffffffffffffffffffffffffffffffffffff1681526020015f81526020015f81526020015f151581526020015f81526020015f151581526020015f81525060cd5f60cb5f015481526020019081526020015f205f820151815f01556020820151816001015f6101000a81548173ffffffffffffffffffffffffffffffffffffffff021916908373ffffffffffffffffffffffffffffffffffffffff16021790555060408201518160020155606082015181600301556080820151816004015f6101000a81548160ff02191690831515021790555060a0820151816005015560c0820151816006015f6101000a81548160ff02191690831515021790555060e082015181600701559050505f60cc5f60cb5f015481526020019081526020015f205f6101000a81548160ff02191690831515021790555060cb5f0154905090565b5f60975f8381526020019081526020015f20600101549050919050565b6106408261061a565b61064981610e0b565b6106538383610e1f565b505050565b610660610efa565b73ffffffffffffffffffffffffffffffffffffffff168173ffffffffffffffffffffffffffffffffffffffff16146106cd576040517f08c379a00000000000000000000000000000000000000000000000000000000081526004016106c490611ea0565b60405180910390fd5b6106d78282610f01565b5050565b7f000000000000000000000000000000000000000000000000000000000000000073ffffffffffffffffffffffffffffffffffffffff163073ffffffffffffffffffffffffffffffffffffffff1603610769576040517f08c379a000000000000000000000000000000000000000000000000000000000815260040161076090611f2e565b60405180910390fd5b7f000000000000000000000000000000000000000000000000000000000000000073ffffffffffffffffffffffffffffffffffffffff166107a8610fdc565b73ffffffffffffffffffffffffffffffffffffffff16146107fe576040517f08c379a00000000000000000000000000000000000000000000000000000000081526004016107f590611fbc565b60405180910390fd5b6108078161102f565b61085e815f67ffffffffffffffff81111561082557610824611b97565b5b6040519080825280601f01601f1916602001820160405280156108575781602001600182028036833780820191505090505b505f611032565b50565b5f828281019061087191906120cf565b9050607b8160400181815250508060cd5f60cb5f015481526020019081526020015f205f820151815f01556020820151816001015f6101000a81548173ffffffffffffffffffffffffffffffffffffffff021916908373ffffffffffffffffffffffffffffffffffffffff16021790555060408201518160020155606082015181600301556080820151816004015f6101000a81548160ff02191690831515021790555060a0820151816005015560c0820151816006015f6101000a81548160ff02191690831515021790555060e08201518160070155905050505050565b7f000000000000000000000000000000000000000000000000000000000000000073ffffffffffffffffffffffffffffffffffffffff163073ffffffffffffffffffffffffffffffffffffffff16036109de576040517f08c379a00000000000000000000000000000000000000000000000000000000081526004016109d590611f2e565b60405180910390fd5b7f000000000000000000000000000000000000000000000000000000000000000073ffffffffffffffffffffffffffffffffffffffff16610a1d610fdc565b73ffffffffffffffffffffffffffffffffffffffff1614610a73576040517f08c379a0000000000000000000000000000000000000000000000000000000008152600401610a6a90611fbc565b60405180910390fd5b610a7c8261102f565b610a8882826001611032565b5050565b5f7f000000000000000000000000000000000000000000000000000000000000000073ffffffffffffffffffffffffffffffffffffffff163073ffffffffffffffffffffffffffffffffffffffff1614610b1b576040517f08c379a0000000000000000000000000000000000000000000000000000000008152600401610b129061216b565b60405180910390fd5b7f360894a13ba1a3210667c828492db98dca3e2076cc3735a920a3ca505d382bbc5f1b905090565b60c95f9054906101000a900473ffffffffffffffffffffffffffffffffffffffff1673ffffffffffffffffffffffffffffffffffffffff163373ffffffffffffffffffffffffffffffffffffffff1614610bd2576040517f08c379a0000000000000000000000000000000000000000000000000000000008152600401610bc9906121d3565b60405180910390fd5b8060ca8190555050565b5f60605f60ca54118015610bf257504260ca5411155b15610c3f576001915060cc5f60cb5f015481526020019081526020015f205f9054906101000a900460ff16604051602001610c2d9190611944565b60405160208183030381529060405290505b9250929050565b610c4e61119c565b610c575f61121a565b565b5f60335f9054906101000a900473ffffffffffffffffffffffffffffffffffffffff16905090565b5f60975f8481526020019081526020015f205f015f8373ffffffffffffffffffffffffffffffffffffffff1673ffffffffffffffffffffffffffffffffffffffff1681526020019081526020015f205f9054906101000a900460ff16905092915050565b5f5f1b81565b610cf48261061a565b610cfd81610e0b565b610d078383610f01565b505050565b610d1461119c565b5f73ffffffffffffffffffffffffffffffffffffffff168173ffffffffffffffffffffffffffffffffffffffff1603610d82576040517f08c379a0000000000000000000000000000000000000000000000000000000008152600401610d7990612261565b60405180910390fd5b610d8b8161121a565b50565b5f7f01ffc9a7000000000000000000000000000000000000000000000000000000007bffffffffffffffffffffffffffffffffffffffffffffffffffffffff1916827bffffffffffffffffffffffffffffffffffffffffffffffffffffffff1916149050919050565b6001815f015f828254019250508190555050565b610e1c81610e17610efa565b6112dd565b50565b610e298282610c81565b610ef657600160975f8481526020019081526020015f205f015f8373ffffffffffffffffffffffffffffffffffffffff1673ffffffffffffffffffffffffffffffffffffffff1681526020019081526020015f205f6101000a81548160ff021916908315150217905550610e9b610efa565b73ffffffffffffffffffffffffffffffffffffffff168173ffffffffffffffffffffffffffffffffffffffff16837f2f8788117e7eff1d82e926ec794901d17c78024a50270940304540a733656f0d60405160405180910390a45b5050565b5f33905090565b610f0b8282610c81565b15610fd8575f60975f8481526020019081526020015f205f015f8373ffffffffffffffffffffffffffffffffffffffff1673ffffffffffffffffffffffffffffffffffffffff1681526020019081526020015f205f6101000a81548160ff021916908315150217905550610f7d610efa565b73ffffffffffffffffffffffffffffffffffffffff168173ffffffffffffffffffffffffffffffffffffffff16837ff6391f5c32d9c69d2a47ea670b442974b53935d1edc7fd64eb21e047a839171b60405160405180910390a45b5050565b5f6110087f360894a13ba1a3210667c828492db98dca3e2076cc3735a920a3ca505d382bbc5f1b611361565b5f015f9054906101000a900473ffffffffffffffffffffffffffffffffffffffff16905090565b50565b61105d7f4910fdfa16fed3260ed0e7147f7cc6da11a60208b5b9406d12a635614ffd91435f1b61136a565b5f015f9054906101000a900460ff161561107f5761107a83611373565b611197565b8273ffffffffffffffffffffffffffffffffffffffff166352d1902d6040518163ffffffff1660e01b8152600401602060405180830381865afa9250505080156110e757506040513d601f19601f820116820180604052508101906110e49190612293565b60015b611126576040517f08c379a000000000000000000000000000000000000000000000000000000000815260040161111d9061232e565b60405180910390fd5b7f360894a13ba1a3210667c828492db98dca3e2076cc3735a920a3ca505d382bbc5f1b811461118a576040517f08c379a0000000000000000000000000000000000000000000000000000000008152600401611181906123bc565b60405180910390fd5b50611196838383611429565b5b505050565b6111a4610efa565b73ffffffffffffffffffffffffffffffffffffffff166111c2610c59565b73ffffffffffffffffffffffffffffffffffffffff1614611218576040517f08c379a000000000000000000000000000000000000000000000000000000000815260040161120f90612424565b60405180910390fd5b565b5f60335f9054906101000a900473ffffffffffffffffffffffffffffffffffffffff1690508160335f6101000a81548173ffffffffffffffffffffffffffffffffffffffff021916908373ffffffffffffffffffffffffffffffffffffffff1602179055508173ffffffffffffffffffffffffffffffffffffffff168173ffffffffffffffffffffffffffffffffffffffff167f8be0079c531659141344cd1fd0a4f28419497f9722a3daafe3b4186f6b6457e060405160405180910390a35050565b6112e78282610c81565b61135d576112f481611454565b611301835f1c6020611481565b60405160200161131292919061251a565b6040516020818303038152906040526040517f08c379a0000000000000000000000000000000000000000000000000000000008152600401611354919061258b565b60405180910390fd5b5050565b5f819050919050565b5f819050919050565b61137c816116b6565b6113bb576040517f08c379a00000000000000000000000000000000000000000000000000000000081526004016113b29061261b565b60405180910390fd5b806113e77f360894a13ba1a3210667c828492db98dca3e2076cc3735a920a3ca505d382bbc5f1b611361565b5f015f6101000a81548173ffffffffffffffffffffffffffffffffffffffff021916908373ffffffffffffffffffffffffffffffffffffffff16021790555050565b611432836116d8565b5f8251118061143e5750805b1561144f5761144d8383611727565b505b505050565b606061147a8273ffffffffffffffffffffffffffffffffffffffff16601460ff16611481565b9050919050565b60605f60028360026114939190612666565b61149d91906126a7565b67ffffffffffffffff8111156114b6576114b5611b97565b5b6040519080825280601f01601f1916602001820160405280156114e85781602001600182028036833780820191505090505b5090507f3000000000000000000000000000000000000000000000000000000000000000815f8151811061151f5761151e6126da565b5b60200101907effffffffffffffffffffffffffffffffffffffffffffffffffffffffffffff191690815f1a9053507f780000000000000000000000000000000000000000000000000000000000000081600181518110611582576115816126da565b5b60200101907effffffffffffffffffffffffffffffffffffffffffffffffffffffffffffff191690815f1a9053505f60018460026115c09190612666565b6115ca91906126a7565b90505b6001811115611669577f3031323334353637383961626364656600000000000000000000000000000000600f86166010811061160c5761160b6126da565b5b1a60f81b828281518110611623576116226126da565b5b60200101907effffffffffffffffffffffffffffffffffffffffffffffffffffffffffffff191690815f1a905350600485901c94508061166290612707565b90506115cd565b505f84146116ac576040517f08c379a00000000000000000000000000000000000000000000000000000000081526004016116a390612778565b60405180910390fd5b8091505092915050565b5f5f8273ffffffffffffffffffffffffffffffffffffffff163b119050919050565b6116e181611373565b8073ffffffffffffffffffffffffffffffffffffffff167fbc7cd75a20ee27fd9adebab32041f755214dbc6bffa90cc0225b39da2e5c2d3b60405160405180910390a250565b606061174c838360405180606001604052806027815260200161284f60279139611754565b905092915050565b60605f5f8573ffffffffffffffffffffffffffffffffffffffff168560405161177d91906127d0565b5f60405180830381855af49150503d805f81146117b5576040519150601f19603f3d011682016040523d82523d5f602084013e6117ba565b606091505b50915091506117cb868383876117d6565b925050509392505050565b60608315611837575f83510361182f576117ef856116b6565b61182e576040517f08c379a000000000000000000000000000000000000000000000000000000000815260040161182590612830565b60405180910390fd5b5b829050611842565b611841838361184a565b5b949350505050565b5f8251111561185c5781518083602001fd5b806040517f08c379a0000000000000000000000000000000000000000000000000000000008152600401611890919061258b565b60405180910390fd5b5f604051905090565b5f5ffd5b5f5ffd5b5f7fffffffff0000000000000000000000000000000000000000000000000000000082169050919050565b6118de816118aa565b81146118e8575f5ffd5b50565b5f813590506118f9816118d5565b92915050565b5f60208284031215611914576119136118a2565b5b5f611921848285016118eb565b91505092915050565b5f8115159050919050565b61193e8161192a565b82525050565b5f6020820190506119575f830184611935565b92915050565b5f819050919050565b61196f8161195d565b82525050565b5f6020820190506119885f830184611966565b92915050565b5f819050919050565b6119a08161198e565b81146119aa575f5ffd5b50565b5f813590506119bb81611997565b92915050565b5f602082840312156119d6576119d56118a2565b5b5f6119e3848285016119ad565b91505092915050565b6119f58161198e565b82525050565b5f602082019050611a0e5f8301846119ec565b92915050565b5f73ffffffffffffffffffffffffffffffffffffffff82169050919050565b5f611a3d82611a14565b9050919050565b611a4d81611a33565b8114611a57575f5ffd5b50565b5f81359050611a6881611a44565b92915050565b5f5f60408385031215611a8457611a836118a2565b5b5f611a91858286016119ad565b9250506020611aa285828601611a5a565b9150509250929050565b5f60208284031215611ac157611ac06118a2565b5b5f611ace84828501611a5a565b91505092915050565b5f5ffd5b5f5ffd5b5f5ffd5b5f5f83601f840112611af857611af7611ad7565b5b8235905067ffffffffffffffff811115611b1557611b14611adb565b5b602083019150836001820283011115611b3157611b30611adf565b5b9250929050565b5f5f60208385031215611b4e57611b4d6118a2565b5b5f83013567ffffffffffffffff811115611b6b57611b6a6118a6565b5b611b7785828601611ae3565b92509250509250929050565b5f5ffd5b5f601f19601f8301169050919050565b7f4e487b71000000000000000000000000000000000000000000000000000000005f52604160045260245ffd5b611bcd82611b87565b810181811067ffffffffffffffff82111715611bec57611beb611b97565b5b80604052505050565b5f611bfe611899565b9050611c0a8282611bc4565b919050565b5f67ffffffffffffffff821115611c2957611c28611b97565b5b611c3282611b87565b9050602081019050919050565b828183375f83830152505050565b5f611c5f611c5a84611c0f565b611bf5565b905082815260208101848484011115611c7b57611c7a611b83565b5b611c86848285611c3f565b509392505050565b5f82601f830112611ca257611ca1611ad7565b5b8135611cb2848260208601611c4d565b91505092915050565b5f5f60408385031215611cd157611cd06118a2565b5b5f611cde85828601611a5a565b925050602083013567ffffffffffffffff811115611cff57611cfe6118a6565b5b611d0b85828601611c8e565b9150509250929050565b611d1e8161195d565b8114611d28575f5ffd5b50565b5f81359050611d3981611d15565b92915050565b5f60208284031215611d5457611d536118a2565b5b5f611d6184828501611d2b565b91505092915050565b5f81519050919050565b5f82825260208201905092915050565b8281835e5f83830152505050565b5f611d9c82611d6a565b611da68185611d74565b9350611db6818560208601611d84565b611dbf81611b87565b840191505092915050565b5f604082019050611ddd5f830185611935565b8181036020830152611def8184611d92565b90509392505050565b611e0181611a33565b82525050565b5f602082019050611e1a5f830184611df8565b92915050565b5f82825260208201905092915050565b7f416363657373436f6e74726f6c3a2063616e206f6e6c792072656e6f756e63655f8201527f20726f6c657320666f722073656c660000000000000000000000000000000000602082015250565b5f611e8a602f83611e20565b9150611e9582611e30565b604082019050919050565b5f6020820190508181035f830152611eb781611e7e565b9050919050565b7f46756e6374696f6e206d7573742062652063616c6c6564207468726f756768205f8201527f64656c656761746563616c6c0000000000000000000000000000000000000000602082015250565b5f611f18602c83611e20565b9150611f2382611ebe565b604082019050919050565b5f6020820190508181035f830152611f4581611f0c565b9050919050565b7f46756e6374696f6e206d7573742062652063616c6c6564207468726f756768205f8201527f6163746976652070726f78790000000000000000000000000000000000000000602082015250565b5f611fa6602c83611e20565b9150611fb182611f4c565b604082019050919050565b5f6020820190508181035f830152611fd381611f9a565b9050919050565b5f5ffd5b611fe78161192a565b8114611ff1575f5ffd5b50565b5f8135905061200281611fde565b92915050565b5f610100828403121561201e5761201d611fda565b5b612029610100611bf5565b90505f61203884828501611d2b565b5f83015250602061204b84828501611a5a565b602083015250604061205f84828501611d2b565b604083015250606061207384828501611d2b565b606083015250608061208784828501611ff4565b60808301525060a061209b84828501611d2b565b60a08301525060c06120af84828501611ff4565b60c08301525060e06120c384828501611d2b565b60e08301525092915050565b5f61010082840312156120e5576120e46118a2565b5b5f6120f284828501612008565b91505092915050565b7f555550535570677261646561626c653a206d757374206e6f742062652063616c5f8201527f6c6564207468726f7567682064656c656761746563616c6c0000000000000000602082015250565b5f612155603883611e20565b9150612160826120fb565b604082019050919050565b5f6020820190508181035f83015261218281612149565b9050919050565b7f696e76616c6964206f776e6572210000000000000000000000000000000000005f82015250565b5f6121bd600e83611e20565b91506121c882612189565b602082019050919050565b5f6020820190508181035f8301526121ea816121b1565b9050919050565b7f4f776e61626c653a206e6577206f776e657220697320746865207a65726f20615f8201527f6464726573730000000000000000000000000000000000000000000000000000602082015250565b5f61224b602683611e20565b9150612256826121f1565b604082019050919050565b5f6020820190508181035f8301526122788161223f565b9050919050565b5f8151905061228d81611997565b92915050565b5f602082840312156122a8576122a76118a2565b5b5f6122b58482850161227f565b91505092915050565b7f45524331393637557067726164653a206e657720696d706c656d656e746174695f8201527f6f6e206973206e6f742055555053000000000000000000000000000000000000602082015250565b5f612318602e83611e20565b9150612323826122be565b604082019050919050565b5f6020820190508181035f8301526123458161230c565b9050919050565b7f45524331393637557067726164653a20756e737570706f727465642070726f785f8201527f6961626c65555549440000000000000000000000000000000000000000000000602082015250565b5f6123a6602983611e20565b91506123b18261234c565b604082019050919050565b5f6020820190508181035f8301526123d38161239a565b9050919050565b7f4f776e61626c653a2063616c6c6572206973206e6f7420746865206f776e65725f82015250565b5f61240e602083611e20565b9150612419826123da565b602082019050919050565b5f6020820190508181035f83015261243b81612402565b9050919050565b5f81905092915050565b7f416363657373436f6e74726f6c3a206163636f756e74200000000000000000005f82015250565b5f612480601783612442565b915061248b8261244c565b601782019050919050565b5f81519050919050565b5f6124aa82612496565b6124b48185612442565b93506124c4818560208601611d84565b80840191505092915050565b7f206973206d697373696e6720726f6c65200000000000000000000000000000005f82015250565b5f612504601183612442565b915061250f826124d0565b601182019050919050565b5f61252482612474565b915061253082856124a0565b915061253b826124f8565b915061254782846124a0565b91508190509392505050565b5f61255d82612496565b6125678185611e20565b9350612577818560208601611d84565b61258081611b87565b840191505092915050565b5f6020820190508181035f8301526125a38184612553565b905092915050565b7f455243313936373a206e657720696d706c656d656e746174696f6e206973206e5f8201527f6f74206120636f6e747261637400000000000000000000000000000000000000602082015250565b5f612605602d83611e20565b9150612610826125ab565b604082019050919050565b5f6020820190508181035f830152612632816125f9565b9050919050565b7f4e487b71000000000000000000000000000000000000000000000000000000005f52601160045260245ffd5b5f6126708261195d565b915061267b8361195d565b92508282026126898161195d565b915082820484148315176126a05761269f612639565b5b5092915050565b5f6126b18261195d565b91506126bc8361195d565b92508282019050808211156126d4576126d3612639565b5b92915050565b7f4e487b71000000000000000000000000000000000000000000000000000000005f52603260045260245ffd5b5f6127118261195d565b91505f820361272357612722612639565b5b600182039050919050565b7f537472696e67733a20686578206c656e67746820696e73756666696369656e745f82015250565b5f612762602083611e20565b915061276d8261272e565b602082019050919050565b5f6020820190508181035f83015261278f81612756565b9050919050565b5f81905092915050565b5f6127aa82611d6a565b6127b48185612796565b93506127c4818560208601611d84565b80840191505092915050565b5f6127db82846127a0565b915081905092915050565b7f416464726573733a2063616c6c20746f206e6f6e2d636f6e74726163740000005f82015250565b5f61281a601d83611e20565b9150612825826127e6565b602082019050919050565b5f6020820190508181035f8301526128478161280e565b905091905056fe416464726573733a206c6f772d6c6576656c2064656c65676174652063616c6c206661696c6564a2646970667358221220c5e975e9db89751c18d8e516529004402bc54a552e074d6ae9c4419ba5755f3c64736f6c634300081e0033","linkReferences":{}},"methodIdentifiers":{"DEFAULT_ADMIN_ROLE()":"a217fddf","addNewNumber()":"065e5d02","checkUpkeep(bytes)":"6e04ff0d","getRoleAdmin(bytes32)":"248a9ca3","grantRole(bytes32,address)":"2f2ff15d","hasRole(bytes32,address)":"91d14854","modifyAutomationTime(uint256)":"6b2d60c9","owner()":"8da5cb5b","performUpkeep(bytes)":"4585e33b","proxiableUUID()":"52d1902d","renounceOwnership()":"715018a6","renounceRole(bytes32,address)":"36568abe","revokeRole(bytes32,address)":"d547741f","supportsInterface(bytes4)":"01ffc9a7","transferOwnership(address)":"f2fde38b","upgradeTo(address)":"3659cfe6","upgradeToAndCall(address,bytes)":"4f1ef286"},"id":22}