{"abi":[{"type":"function","name":"DEFAULT_ADMIN_ROLE","inputs":[],"outputs":[{"name":"","type":"bytes32","internalType":"bytes32"}],"stateMutability":"view"},{"type":"function","name":"checkUpkeep","inputs":[{"name":"checkData","type":"bytes","internalType":"bytes"}],"outputs":[{"name":"upkeepNeeded","type":"bool","internalType":"bool"},{"name":"performData","type":"bytes","internalType":"bytes"}],"stateMutability":"view"},{"type":"function","name":"getRoleAdmin","inputs":[{"name":"role","type":"bytes32","internalType":"bytes32"}],"outputs":[{"name":"","type":"bytes32","internalType":"bytes32"}],"stateMutability":"view"},{"type":"function","name":"grantRole","inputs":[{"name":"role","type":"bytes32","internalType":"bytes32"},{"name":"account","type":"address","internalType":"address"}],"outputs":[],"stateMutability":"nonpayable"},{"type":"function","name":"hasRole","inputs":[{"name":"role","type":"bytes32","internalType":"bytes32"},{"name":"account","type":"address","internalType":"address"}],"outputs":[{"name":"","type":"bool","internalType":"bool"}],"stateMutability":"view"},{"type":"function","name":"initialize","inputs":[],"outputs":[],"stateMutability":"nonpayable"},{"type":"function","name":"modifyCampain","inputs":[{"name":"campain_","type":"tuple","internalType":"struct DiscountCampain","components":[{"name":"id","type":"uint256","internalType":"uint256"},{"name":"discountPercent","type":"uint8","internalType":"uint8"},{"name":"startTime","type":"uint256","internalType":"uint256"},{"name":"endTime","type":"uint256","internalType":"uint256"},{"name":"isActive","type":"bool","internalType":"bool"}]}],"outputs":[{"name":"","type":"bool","internalType":"bool"}],"stateMutability":"nonpayable"},{"type":"function","name":"modifyCampain2","inputs":[],"outputs":[{"name":"","type":"bool","internalType":"bool"}],"stateMutability":"nonpayable"},{"type":"function","name":"owner","inputs":[],"outputs":[{"name":"","type":"address","internalType":"address"}],"stateMutability":"view"},{"type":"function","name":"performUpkeep","inputs":[{"name":"performData","type":"bytes","internalType":"bytes"}],"outputs":[],"stateMutability":"nonpayable"},{"type":"function","name":"proxiableUUID","inputs":[],"outputs":[{"name":"","type":"bytes32","internalType":"bytes32"}],"stateMutability":"view"},{"type":"function","name":"renounceOwnership","inputs":[],"outputs":[],"stateMutability":"nonpayable"},{"type":"function","name":"renounceRole","inputs":[{"name":"role","type":"bytes32","internalType":"bytes32"},{"name":"account","type":"address","internalType":"address"}],"outputs":[],"stateMutability":"nonpayable"},{"type":"function","name":"revokeRole","inputs":[{"name":"role","type":"bytes32","internalType":"bytes32"},{"name":"account","type":"address","internalType":"address"}],"outputs":[],"stateMutability":"nonpayable"},{"type":"function","name":"supportsInterface","inputs":[{"name":"interfaceId","type":"bytes4","internalType":"bytes4"}],"outputs":[{"name":"","type":"bool","internalType":"bool"}],"stateMutability":"view"},{"type":"function","name":"transferOwnership","inputs":[{"name":"newOwner","type":"address","internalType":"address"}],"outputs":[],"stateMutability":"nonpayable"},{"type":"function","name":"upgradeTo","inputs":[{"name":"newImplementation","type":"address","internalType":"address"}],"outputs":[],"stateMutability":"nonpayable"},{"type":"function","name":"upgradeToAndCall","inputs":[{"name":"newImplementation","type":"address","internalType":"address"},{"name":"data","type":"bytes","internalType":"bytes"}],"outputs":[],"stateMutability":"payable"},{"type":"event","name":"AdminChanged","inputs":[{"name":"previousAdmin","type":"address","indexed":false,"internalType":"address"},{"name":"newAdmin","type":"address","indexed":false,"internalType":"address"}],"anonymous":false},{"type":"event","name":"BeaconUpgraded","inputs":[{"name":"beacon","type":"address","indexed":true,"internalType":"address"}],"anonymous":false},{"type":"event","name":"CountEvent","inputs":[{"name":"","type":"uint256","indexed":false,"internalType":"uint256"}],"anonymous":false},{"type":"event","name":"Initialized","inputs":[{"name":"version","type":"uint8","indexed":false,"internalType":"uint8"}],"anonymous":false},{"type":"event","name":"OwnershipTransferred","inputs":[{"name":"previousOwner","type":"address","indexed":true,"internalType":"address"},{"name":"newOwner","type":"address","indexed":true,"internalType":"address"}],"anonymous":false},{"type":"event","name":"RoleAdminChanged","inputs":[{"name":"role","type":"bytes32","indexed":true,"internalType":"bytes32"},{"name":"previousAdminRole","type":"bytes32","indexed":true,"internalType":"bytes32"},{"name":"newAdminRole","type":"bytes32","indexed":true,"internalType":"bytes32"}],"anonymous":false},{"type":"event","name":"RoleGranted","inputs":[{"name":"role","type":"bytes32","indexed":true,"internalType":"bytes32"},{"name":"account","type":"address","indexed":true,"internalType":"address"},{"name":"sender","type":"address","indexed":true,"internalType":"address"}],"anonymous":false},{"type":"event","name":"RoleRevoked","inputs":[{"name":"role","type":"bytes32","indexed":true,"internalType":"bytes32"},{"name":"account","type":"address","indexed":true,"internalType":"address"},{"name":"sender","type":"address","indexed":true,"internalType":"address"}],"anonymous":false},{"type":"event","name":"Upgraded","inputs":[{"name":"implementation","type":"address","indexed":true,"internalType":"address"}],"anonymous":false}],"bytecode":{"object":"0x60a06040523073ffffffffffffffffffffffffffffffffffffffff1660809073ffffffffffffffffffffffffffffffffffffffff16815250348015610042575f5ffd5b50608051612a736100775f395f8181610555015281816105e301528181610724015281816107b201526108610152612a735ff3fe608060405260043610610108575f3560e01c8063715018a611610094578063a217fddf11610063578063a217fddf14610339578063d37c1b8b14610363578063d547741f1461038d578063e2145863146103b5578063f2fde38b146103f157610108565b8063715018a6146102a75780638129fc1c146102bd5780638da5cb5b146102d357806391d14854146102fd57610108565b80633659cfe6116100db5780633659cfe6146101d45780634585e33b146101fc5780634f1ef2861461022457806352d1902d146102405780636e04ff0d1461026a57610108565b806301ffc9a71461010c578063248a9ca3146101485780632f2ff15d1461018457806336568abe146101ac575b5f5ffd5b348015610117575f5ffd5b50610132600480360381019061012d91906119ec565b610419565b60405161013f9190611a31565b60405180910390f35b348015610153575f5ffd5b5061016e60048036038101906101699190611a7d565b610492565b60405161017b9190611ab7565b60405180910390f35b34801561018f575f5ffd5b506101aa60048036038101906101a59190611b2a565b6104af565b005b3480156101b7575f5ffd5b506101d260048036038101906101cd9190611b2a565b6104d0565b005b3480156101df575f5ffd5b506101fa60048036038101906101f59190611b68565b610553565b005b348015610207575f5ffd5b50610222600480360381019061021d9190611bf4565b6106d9565b005b61023e60048036038101906102399190611d77565b610722565b005b34801561024b575f5ffd5b5061025461085e565b6040516102619190611ab7565b60405180910390f35b348015610275575f5ffd5b50610290600480360381019061028b9190611bf4565b610915565b60405161029e929190611e31565b60405180910390f35b3480156102b2575f5ffd5b506102bb61095b565b005b3480156102c8575f5ffd5b506102d161096e565b005b3480156102de575f5ffd5b506102e7610b5a565b6040516102f49190611e6e565b60405180910390f35b348015610308575f5ffd5b50610323600480360381019061031e9190611b2a565b610b82565b6040516103309190611a31565b60405180910390f35b348015610344575f5ffd5b5061034d610be6565b60405161035a9190611ab7565b60405180910390f35b34801561036e575f5ffd5b50610377610bec565b6040516103849190611a31565b60405180910390f35b348015610398575f5ffd5b506103b360048036038101906103ae9190611b2a565b610c3b565b005b3480156103c0575f5ffd5b506103db60048036038101906103d69190611fa7565b610c5c565b6040516103e89190611a31565b60405180910390f35b3480156103fc575f5ffd5b5061041760048036038101906104129190611b68565b610ccf565b005b5f7f7965db0b000000000000000000000000000000000000000000000000000000007bffffffffffffffffffffffffffffffffffffffffffffffffffffffff1916827bffffffffffffffffffffffffffffffffffffffffffffffffffffffff1916148061048b575061048a82610d51565b5b9050919050565b5f60975f8381526020019081526020015f20600101549050919050565b6104b882610492565b6104c181610dba565b6104cb8383610dce565b505050565b6104d8610ea9565b73ffffffffffffffffffffffffffffffffffffffff168173ffffffffffffffffffffffffffffffffffffffff1614610545576040517f08c379a000000000000000000000000000000000000000000000000000000000815260040161053c90612052565b60405180910390fd5b61054f8282610eb0565b5050565b7f000000000000000000000000000000000000000000000000000000000000000073ffffffffffffffffffffffffffffffffffffffff163073ffffffffffffffffffffffffffffffffffffffff16036105e1576040517f08c379a00000000000000000000000000000000000000000000000000000000081526004016105d8906120e0565b60405180910390fd5b7f000000000000000000000000000000000000000000000000000000000000000073ffffffffffffffffffffffffffffffffffffffff16610620610f8b565b73ffffffffffffffffffffffffffffffffffffffff1614610676576040517f08c379a000000000000000000000000000000000000000000000000000000000815260040161066d9061216e565b60405180910390fd5b61067f81610fde565b6106d6815f67ffffffffffffffff81111561069d5761069c611c53565b5b6040519080825280601f01601f1916602001820160405280156106cf5781602001600182028036833780820191505090505b505f610fe1565b50565b6106e360ce61114b565b7f1b5763fd40d7badd8d131246c80e230dd5408301a9606a4d23af5440b50a783360ce5f0154604051610716919061219b565b60405180910390a15050565b7f000000000000000000000000000000000000000000000000000000000000000073ffffffffffffffffffffffffffffffffffffffff163073ffffffffffffffffffffffffffffffffffffffff16036107b0576040517f08c379a00000000000000000000000000000000000000000000000000000000081526004016107a7906120e0565b60405180910390fd5b7f000000000000000000000000000000000000000000000000000000000000000073ffffffffffffffffffffffffffffffffffffffff166107ef610f8b565b73ffffffffffffffffffffffffffffffffffffffff1614610845576040517f08c379a000000000000000000000000000000000000000000000000000000000815260040161083c9061216e565b60405180910390fd5b61084e82610fde565b61085a82826001610fe1565b5050565b5f7f000000000000000000000000000000000000000000000000000000000000000073ffffffffffffffffffffffffffffffffffffffff163073ffffffffffffffffffffffffffffffffffffffff16146108ed576040517f08c379a00000000000000000000000000000000000000000000000000000000081526004016108e490612224565b60405180910390fd5b7f360894a13ba1a3210667c828492db98dca3e2076cc3735a920a3ca505d382bbc5f1b905090565b5f606060c96002015442118015610930575060c96003015442105b801561094a575060c96004015f9054906101000a900460ff165b1561095457600191505b9250929050565b61096361115f565b61096c5f6111dd565b565b5f5f60019054906101000a900460ff1615905080801561099e575060015f5f9054906101000a900460ff1660ff16105b806109cb57506109ad306112a0565b1580156109ca575060015f5f9054906101000a900460ff1660ff16145b5b610a0a576040517f08c379a0000000000000000000000000000000000000000000000000000000008152600401610a01906122b2565b60405180910390fd5b60015f5f6101000a81548160ff021916908360ff1602179055508015610a455760015f60016101000a81548160ff0219169083151502179055505b610a4d6112c2565b610a5561131a565b6040518060a0016040528060018152602001600a60ff1681526020015f81526020015f81526020015f151581525060c95f820151815f01556020820151816001015f6101000a81548160ff021916908360ff16021790555060408201518160020155606082015181600301556080820151816004015f6101000a81548160ff02191690831515021790555090505060405180602001604052805f81525060ce5f820151815f01559050508015610b57575f5f60016101000a81548160ff0219169083151502179055507f7f26b83ff96e1f2b6a682f133852f6798a09c465da95921460cefb38474024986001604051610b4e9190612312565b60405180910390a15b50565b5f60335f9054906101000a900473ffffffffffffffffffffffffffffffffffffffff16905090565b5f60975f8481526020019081526020015f205f015f8373ffffffffffffffffffffffffffffffffffffffff1673ffffffffffffffffffffffffffffffffffffffff1681526020019081526020015f205f9054906101000a900460ff16905092915050565b5f5f1b81565b5f610bf561115f565b600160c96004015f6101000a81548160ff0219169083151502179055504260c960020181905550620f424042610c2b9190612358565b60c9600301819055506001905090565b610c4482610492565b610c4d81610dba565b610c578383610eb0565b505050565b5f610c6561115f565b8160c95f820151815f01556020820151816001015f6101000a81548160ff021916908360ff16021790555060408201518160020155606082015181600301556080820151816004015f6101000a81548160ff02191690831515021790555090505060019050919050565b610cd761115f565b5f73ffffffffffffffffffffffffffffffffffffffff168173ffffffffffffffffffffffffffffffffffffffff1603610d45576040517f08c379a0000000000000000000000000000000000000000000000000000000008152600401610d3c906123fb565b60405180910390fd5b610d4e816111dd565b50565b5f7f01ffc9a7000000000000000000000000000000000000000000000000000000007bffffffffffffffffffffffffffffffffffffffffffffffffffffffff1916827bffffffffffffffffffffffffffffffffffffffffffffffffffffffff1916149050919050565b610dcb81610dc6610ea9565b61136a565b50565b610dd88282610b82565b610ea557600160975f8481526020019081526020015f205f015f8373ffffffffffffffffffffffffffffffffffffffff1673ffffffffffffffffffffffffffffffffffffffff1681526020019081526020015f205f6101000a81548160ff021916908315150217905550610e4a610ea9565b73ffffffffffffffffffffffffffffffffffffffff168173ffffffffffffffffffffffffffffffffffffffff16837f2f8788117e7eff1d82e926ec794901d17c78024a50270940304540a733656f0d60405160405180910390a45b5050565b5f33905090565b610eba8282610b82565b15610f87575f60975f8481526020019081526020015f205f015f8373ffffffffffffffffffffffffffffffffffffffff1673ffffffffffffffffffffffffffffffffffffffff1681526020019081526020015f205f6101000a81548160ff021916908315150217905550610f2c610ea9565b73ffffffffffffffffffffffffffffffffffffffff168173ffffffffffffffffffffffffffffffffffffffff16837ff6391f5c32d9c69d2a47ea670b442974b53935d1edc7fd64eb21e047a839171b60405160405180910390a45b5050565b5f610fb77f360894a13ba1a3210667c828492db98dca3e2076cc3735a920a3ca505d382bbc5f1b6113ee565b5f015f9054906101000a900473ffffffffffffffffffffffffffffffffffffffff16905090565b50565b61100c7f4910fdfa16fed3260ed0e7147f7cc6da11a60208b5b9406d12a635614ffd91435f1b6113f7565b5f015f9054906101000a900460ff161561102e5761102983611400565b611146565b8273ffffffffffffffffffffffffffffffffffffffff166352d1902d6040518163ffffffff1660e01b8152600401602060405180830381865afa92505050801561109657506040513d601f19601f82011682018060405250810190611093919061242d565b60015b6110d5576040517f08c379a00000000000000000000000000000000000000000000000000000000081526004016110cc906124c8565b60405180910390fd5b7f360894a13ba1a3210667c828492db98dca3e2076cc3735a920a3ca505d382bbc5f1b8114611139576040517f08c379a000000000000000000000000000000000000000000000000000000000815260040161113090612556565b60405180910390fd5b506111458383836114b6565b5b505050565b6001815f015f828254019250508190555050565b611167610ea9565b73ffffffffffffffffffffffffffffffffffffffff16611185610b5a565b73ffffffffffffffffffffffffffffffffffffffff16146111db576040517f08c379a00000000000000000000000000000000000000000000000000000000081526004016111d2906125be565b60405180910390fd5b565b5f60335f9054906101000a900473ffffffffffffffffffffffffffffffffffffffff1690508160335f6101000a81548173ffffffffffffffffffffffffffffffffffffffff021916908373ffffffffffffffffffffffffffffffffffffffff1602179055508173ffffffffffffffffffffffffffffffffffffffff168173ffffffffffffffffffffffffffffffffffffffff167f8be0079c531659141344cd1fd0a4f28419497f9722a3daafe3b4186f6b6457e060405160405180910390a35050565b5f5f8273ffffffffffffffffffffffffffffffffffffffff163b119050919050565b5f60019054906101000a900460ff16611310576040517f08c379a00000000000000000000000000000000000000000000000000000000081526004016113079061264c565b60405180910390fd5b6113186114e1565b565b5f60019054906101000a900460ff16611368576040517f08c379a000000000000000000000000000000000000000000000000000000000815260040161135f9061264c565b60405180910390fd5b565b6113748282610b82565b6113ea5761138181611541565b61138e835f1c602061156e565b60405160200161139f929190612742565b6040516020818303038152906040526040517f08c379a00000000000000000000000000000000000000000000000000000000081526004016113e191906127b3565b60405180910390fd5b5050565b5f819050919050565b5f819050919050565b611409816117a3565b611448576040517f08c379a000000000000000000000000000000000000000000000000000000000815260040161143f90612843565b60405180910390fd5b806114747f360894a13ba1a3210667c828492db98dca3e2076cc3735a920a3ca505d382bbc5f1b6113ee565b5f015f6101000a81548173ffffffffffffffffffffffffffffffffffffffff021916908373ffffffffffffffffffffffffffffffffffffffff16021790555050565b6114bf836117c5565b5f825111806114cb5750805b156114dc576114da8383611814565b505b505050565b5f60019054906101000a900460ff1661152f576040517f08c379a00000000000000000000000000000000000000000000000000000000081526004016115269061264c565b60405180910390fd5b61153f61153a610ea9565b6111dd565b565b60606115678273ffffffffffffffffffffffffffffffffffffffff16601460ff1661156e565b9050919050565b60605f60028360026115809190612861565b61158a9190612358565b67ffffffffffffffff8111156115a3576115a2611c53565b5b6040519080825280601f01601f1916602001820160405280156115d55781602001600182028036833780820191505090505b5090507f3000000000000000000000000000000000000000000000000000000000000000815f8151811061160c5761160b6128a2565b5b60200101907effffffffffffffffffffffffffffffffffffffffffffffffffffffffffffff191690815f1a9053507f78000000000000000000000000000000000000000000000000000000000000008160018151811061166f5761166e6128a2565b5b60200101907effffffffffffffffffffffffffffffffffffffffffffffffffffffffffffff191690815f1a9053505f60018460026116ad9190612861565b6116b79190612358565b90505b6001811115611756577f3031323334353637383961626364656600000000000000000000000000000000600f8616601081106116f9576116f86128a2565b5b1a60f81b8282815181106117105761170f6128a2565b5b60200101907effffffffffffffffffffffffffffffffffffffffffffffffffffffffffffff191690815f1a905350600485901c94508061174f906128cf565b90506116ba565b505f8414611799576040517f08c379a000000000000000000000000000000000000000000000000000000000815260040161179090612940565b60405180910390fd5b8091505092915050565b5f5f8273ffffffffffffffffffffffffffffffffffffffff163b119050919050565b6117ce81611400565b8073ffffffffffffffffffffffffffffffffffffffff167fbc7cd75a20ee27fd9adebab32041f755214dbc6bffa90cc0225b39da2e5c2d3b60405160405180910390a250565b60606118398383604051806060016040528060278152602001612a1760279139611841565b905092915050565b60605f5f8573ffffffffffffffffffffffffffffffffffffffff168560405161186a9190612998565b5f60405180830381855af49150503d805f81146118a2576040519150601f19603f3d011682016040523d82523d5f602084013e6118a7565b606091505b50915091506118b8868383876118c3565b925050509392505050565b60608315611924575f83510361191c576118dc856117a3565b61191b576040517f08c379a0000000000000000000000000000000000000000000000000000000008152600401611912906129f8565b60405180910390fd5b5b82905061192f565b61192e8383611937565b5b949350505050565b5f825111156119495781518083602001fd5b806040517f08c379a000000000000000000000000000000000000000000000000000000000815260040161197d91906127b3565b60405180910390fd5b5f604051905090565b5f5ffd5b5f5ffd5b5f7fffffffff0000000000000000000000000000000000000000000000000000000082169050919050565b6119cb81611997565b81146119d5575f5ffd5b50565b5f813590506119e6816119c2565b92915050565b5f60208284031215611a0157611a0061198f565b5b5f611a0e848285016119d8565b91505092915050565b5f8115159050919050565b611a2b81611a17565b82525050565b5f602082019050611a445f830184611a22565b92915050565b5f819050919050565b611a5c81611a4a565b8114611a66575f5ffd5b50565b5f81359050611a7781611a53565b92915050565b5f60208284031215611a9257611a9161198f565b5b5f611a9f84828501611a69565b91505092915050565b611ab181611a4a565b82525050565b5f602082019050611aca5f830184611aa8565b92915050565b5f73ffffffffffffffffffffffffffffffffffffffff82169050919050565b5f611af982611ad0565b9050919050565b611b0981611aef565b8114611b13575f5ffd5b50565b5f81359050611b2481611b00565b92915050565b5f5f60408385031215611b4057611b3f61198f565b5b5f611b4d85828601611a69565b9250506020611b5e85828601611b16565b9150509250929050565b5f60208284031215611b7d57611b7c61198f565b5b5f611b8a84828501611b16565b91505092915050565b5f5ffd5b5f5ffd5b5f5ffd5b5f5f83601f840112611bb457611bb3611b93565b5b8235905067ffffffffffffffff811115611bd157611bd0611b97565b5b602083019150836001820283011115611bed57611bec611b9b565b5b9250929050565b5f5f60208385031215611c0a57611c0961198f565b5b5f83013567ffffffffffffffff811115611c2757611c26611993565b5b611c3385828601611b9f565b92509250509250929050565b5f5ffd5b5f601f19601f8301169050919050565b7f4e487b71000000000000000000000000000000000000000000000000000000005f52604160045260245ffd5b611c8982611c43565b810181811067ffffffffffffffff82111715611ca857611ca7611c53565b5b80604052505050565b5f611cba611986565b9050611cc68282611c80565b919050565b5f67ffffffffffffffff821115611ce557611ce4611c53565b5b611cee82611c43565b9050602081019050919050565b828183375f83830152505050565b5f611d1b611d1684611ccb565b611cb1565b905082815260208101848484011115611d3757611d36611c3f565b5b611d42848285611cfb565b509392505050565b5f82601f830112611d5e57611d5d611b93565b5b8135611d6e848260208601611d09565b91505092915050565b5f5f60408385031215611d8d57611d8c61198f565b5b5f611d9a85828601611b16565b925050602083013567ffffffffffffffff811115611dbb57611dba611993565b5b611dc785828601611d4a565b9150509250929050565b5f81519050919050565b5f82825260208201905092915050565b8281835e5f83830152505050565b5f611e0382611dd1565b611e0d8185611ddb565b9350611e1d818560208601611deb565b611e2681611c43565b840191505092915050565b5f604082019050611e445f830185611a22565b8181036020830152611e568184611df9565b90509392505050565b611e6881611aef565b82525050565b5f602082019050611e815f830184611e5f565b92915050565b5f5ffd5b5f819050919050565b611e9d81611e8b565b8114611ea7575f5ffd5b50565b5f81359050611eb881611e94565b92915050565b5f60ff82169050919050565b611ed381611ebe565b8114611edd575f5ffd5b50565b5f81359050611eee81611eca565b92915050565b611efd81611a17565b8114611f07575f5ffd5b50565b5f81359050611f1881611ef4565b92915050565b5f60a08284031215611f3357611f32611e87565b5b611f3d60a0611cb1565b90505f611f4c84828501611eaa565b5f830152506020611f5f84828501611ee0565b6020830152506040611f7384828501611eaa565b6040830152506060611f8784828501611eaa565b6060830152506080611f9b84828501611f0a565b60808301525092915050565b5f60a08284031215611fbc57611fbb61198f565b5b5f611fc984828501611f1e565b91505092915050565b5f82825260208201905092915050565b7f416363657373436f6e74726f6c3a2063616e206f6e6c792072656e6f756e63655f8201527f20726f6c657320666f722073656c660000000000000000000000000000000000602082015250565b5f61203c602f83611fd2565b915061204782611fe2565b604082019050919050565b5f6020820190508181035f83015261206981612030565b9050919050565b7f46756e6374696f6e206d7573742062652063616c6c6564207468726f756768205f8201527f64656c656761746563616c6c0000000000000000000000000000000000000000602082015250565b5f6120ca602c83611fd2565b91506120d582612070565b604082019050919050565b5f6020820190508181035f8301526120f7816120be565b9050919050565b7f46756e6374696f6e206d7573742062652063616c6c6564207468726f756768205f8201527f6163746976652070726f78790000000000000000000000000000000000000000602082015250565b5f612158602c83611fd2565b9150612163826120fe565b604082019050919050565b5f6020820190508181035f8301526121858161214c565b9050919050565b61219581611e8b565b82525050565b5f6020820190506121ae5f83018461218c565b92915050565b7f555550535570677261646561626c653a206d757374206e6f742062652063616c5f8201527f6c6564207468726f7567682064656c656761746563616c6c0000000000000000602082015250565b5f61220e603883611fd2565b9150612219826121b4565b604082019050919050565b5f6020820190508181035f83015261223b81612202565b9050919050565b7f496e697469616c697a61626c653a20636f6e747261637420697320616c7265615f8201527f647920696e697469616c697a6564000000000000000000000000000000000000602082015250565b5f61229c602e83611fd2565b91506122a782612242565b604082019050919050565b5f6020820190508181035f8301526122c981612290565b9050919050565b5f819050919050565b5f819050919050565b5f6122fc6122f76122f2846122d0565b6122d9565b611ebe565b9050919050565b61230c816122e2565b82525050565b5f6020820190506123255f830184612303565b92915050565b7f4e487b71000000000000000000000000000000000000000000000000000000005f52601160045260245ffd5b5f61236282611e8b565b915061236d83611e8b565b92508282019050808211156123855761238461232b565b5b92915050565b7f4f776e61626c653a206e6577206f776e657220697320746865207a65726f20615f8201527f6464726573730000000000000000000000000000000000000000000000000000602082015250565b5f6123e5602683611fd2565b91506123f08261238b565b604082019050919050565b5f6020820190508181035f830152612412816123d9565b9050919050565b5f8151905061242781611a53565b92915050565b5f602082840312156124425761244161198f565b5b5f61244f84828501612419565b91505092915050565b7f45524331393637557067726164653a206e657720696d706c656d656e746174695f8201527f6f6e206973206e6f742055555053000000000000000000000000000000000000602082015250565b5f6124b2602e83611fd2565b91506124bd82612458565b604082019050919050565b5f6020820190508181035f8301526124df816124a6565b9050919050565b7f45524331393637557067726164653a20756e737570706f727465642070726f785f8201527f6961626c65555549440000000000000000000000000000000000000000000000602082015250565b5f612540602983611fd2565b915061254b826124e6565b604082019050919050565b5f6020820190508181035f83015261256d81612534565b9050919050565b7f4f776e61626c653a2063616c6c6572206973206e6f7420746865206f776e65725f82015250565b5f6125a8602083611fd2565b91506125b382612574565b602082019050919050565b5f6020820190508181035f8301526125d58161259c565b9050919050565b7f496e697469616c697a61626c653a20636f6e7472616374206973206e6f7420695f8201527f6e697469616c697a696e67000000000000000000000000000000000000000000602082015250565b5f612636602b83611fd2565b9150612641826125dc565b604082019050919050565b5f6020820190508181035f8301526126638161262a565b9050919050565b5f81905092915050565b7f416363657373436f6e74726f6c3a206163636f756e74200000000000000000005f82015250565b5f6126a860178361266a565b91506126b382612674565b601782019050919050565b5f81519050919050565b5f6126d2826126be565b6126dc818561266a565b93506126ec818560208601611deb565b80840191505092915050565b7f206973206d697373696e6720726f6c65200000000000000000000000000000005f82015250565b5f61272c60118361266a565b9150612737826126f8565b601182019050919050565b5f61274c8261269c565b915061275882856126c8565b915061276382612720565b915061276f82846126c8565b91508190509392505050565b5f612785826126be565b61278f8185611fd2565b935061279f818560208601611deb565b6127a881611c43565b840191505092915050565b5f6020820190508181035f8301526127cb818461277b565b905092915050565b7f455243313936373a206e657720696d706c656d656e746174696f6e206973206e5f8201527f6f74206120636f6e747261637400000000000000000000000000000000000000602082015250565b5f61282d602d83611fd2565b9150612838826127d3565b604082019050919050565b5f6020820190508181035f83015261285a81612821565b9050919050565b5f61286b82611e8b565b915061287683611e8b565b925082820261288481611e8b565b9150828204841483151761289b5761289a61232b565b5b5092915050565b7f4e487b71000000000000000000000000000000000000000000000000000000005f52603260045260245ffd5b5f6128d982611e8b565b91505f82036128eb576128ea61232b565b5b600182039050919050565b7f537472696e67733a20686578206c656e67746820696e73756666696369656e745f82015250565b5f61292a602083611fd2565b9150612935826128f6565b602082019050919050565b5f6020820190508181035f8301526129578161291e565b9050919050565b5f81905092915050565b5f61297282611dd1565b61297c818561295e565b935061298c818560208601611deb565b80840191505092915050565b5f6129a38284612968565b915081905092915050565b7f416464726573733a2063616c6c20746f206e6f6e2d636f6e74726163740000005f82015250565b5f6129e2601d83611fd2565b91506129ed826129ae565b602082019050919050565b5f6020820190508181035f830152612a0f816129d6565b905091905056fe416464726573733a206c6f772d6c6576656c2064656c65676174652063616c6c206661696c6564a264697066735822122076a495b1146943e9b03bb526314165c7bf16cab03c438d0fdc3615f4f8b6bd9f64736f6c634300081e0033","linkReferences":{}},"methodIdentifiers":{"DEFAULT_ADMIN_ROLE()":"a217fddf","checkUpkeep(bytes)":"6e04ff0d","getRoleAdmin(bytes32)":"248a9ca3","grantRole(bytes32,address)":"2f2ff15d","hasRole(bytes32,address)":"91d14854","initialize()":"8129fc1c","modifyCampain((uint256,uint8,uint256,uint256,bool))":"e2145863","modifyCampain2()":"d37c1b8b","owner()":"8da5cb5b","performUpkeep(bytes)":"4585e33b","proxiableUUID()":"52d1902d","renounceOwnership()":"715018a6","renounceRole(bytes32,address)":"36568abe","revokeRole(bytes32,address)":"d547741f","supportsInterface(bytes4)":"01ffc9a7","transferOwnership(address)":"f2fde38b","upgradeTo(address)":"3659cfe6","upgradeToAndCall(address,bytes)":"4f1ef286"},"id":40}