{"abi":[{"type":"constructor","inputs":[],"stateMutability":"nonpayable"},{"type":"function","name":"DEFAULT_ADMIN_ROLE","inputs":[],"outputs":[{"name":"","type":"bytes32","internalType":"bytes32"}],"stateMutability":"view"},{"type":"function","name":"getRoleAdmin","inputs":[{"name":"role","type":"bytes32","internalType":"bytes32"}],"outputs":[{"name":"","type":"bytes32","internalType":"bytes32"}],"stateMutability":"view"},{"type":"function","name":"grantRole","inputs":[{"name":"role","type":"bytes32","internalType":"bytes32"},{"name":"account","type":"address","internalType":"address"}],"outputs":[],"stateMutability":"nonpayable"},{"type":"function","name":"hasRole","inputs":[{"name":"role","type":"bytes32","internalType":"bytes32"},{"name":"account","type":"address","internalType":"address"}],"outputs":[{"name":"","type":"bool","internalType":"bool"}],"stateMutability":"view"},{"type":"function","name":"owner","inputs":[],"outputs":[{"name":"","type":"address","internalType":"address"}],"stateMutability":"view"},{"type":"function","name":"proxiableUUID","inputs":[],"outputs":[{"name":"","type":"bytes32","internalType":"bytes32"}],"stateMutability":"view"},{"type":"function","name":"renounceOwnership","inputs":[],"outputs":[],"stateMutability":"nonpayable"},{"type":"function","name":"renounceRole","inputs":[{"name":"role","type":"bytes32","internalType":"bytes32"},{"name":"account","type":"address","internalType":"address"}],"outputs":[],"stateMutability":"nonpayable"},{"type":"function","name":"revokeRole","inputs":[{"name":"role","type":"bytes32","internalType":"bytes32"},{"name":"account","type":"address","internalType":"address"}],"outputs":[],"stateMutability":"nonpayable"},{"type":"function","name":"supportsInterface","inputs":[{"name":"interfaceId","type":"bytes4","internalType":"bytes4"}],"outputs":[{"name":"","type":"bool","internalType":"bool"}],"stateMutability":"view"},{"type":"function","name":"transferOwnership","inputs":[{"name":"newOwner","type":"address","internalType":"address"}],"outputs":[],"stateMutability":"nonpayable"},{"type":"function","name":"upgradeTo","inputs":[{"name":"newImplementation","type":"address","internalType":"address"}],"outputs":[],"stateMutability":"nonpayable"},{"type":"function","name":"upgradeToAndCall","inputs":[{"name":"newImplementation","type":"address","internalType":"address"},{"name":"data","type":"bytes","internalType":"bytes"}],"outputs":[],"stateMutability":"payable"},{"type":"event","name":"AdminChanged","inputs":[{"name":"previousAdmin","type":"address","indexed":false,"internalType":"address"},{"name":"newAdmin","type":"address","indexed":false,"internalType":"address"}],"anonymous":false},{"type":"event","name":"BeaconUpgraded","inputs":[{"name":"beacon","type":"address","indexed":true,"internalType":"address"}],"anonymous":false},{"type":"event","name":"Initialized","inputs":[{"name":"version","type":"uint8","indexed":false,"internalType":"uint8"}],"anonymous":false},{"type":"event","name":"OwnershipTransferred","inputs":[{"name":"previousOwner","type":"address","indexed":true,"internalType":"address"},{"name":"newOwner","type":"address","indexed":true,"internalType":"address"}],"anonymous":false},{"type":"event","name":"RoleAdminChanged","inputs":[{"name":"role","type":"bytes32","indexed":true,"internalType":"bytes32"},{"name":"previousAdminRole","type":"bytes32","indexed":true,"internalType":"bytes32"},{"name":"newAdminRole","type":"bytes32","indexed":true,"internalType":"bytes32"}],"anonymous":false},{"type":"event","name":"RoleGranted","inputs":[{"name":"role","type":"bytes32","indexed":true,"internalType":"bytes32"},{"name":"account","type":"address","indexed":true,"internalType":"address"},{"name":"sender","type":"address","indexed":true,"internalType":"address"}],"anonymous":false},{"type":"event","name":"RoleRevoked","inputs":[{"name":"role","type":"bytes32","indexed":true,"internalType":"bytes32"},{"name":"account","type":"address","indexed":true,"internalType":"address"},{"name":"sender","type":"address","indexed":true,"internalType":"address"}],"anonymous":false},{"type":"event","name":"Upgraded","inputs":[{"name":"implementation","type":"address","indexed":true,"internalType":"address"}],"anonymous":false}],"bytecode":{"object":"0x60a06040523073ffffffffffffffffffffffffffffffffffffffff1660809073ffffffffffffffffffffffffffffffffffffffff16815250348015610042575f5ffd5b5061005161006460201b60201c565b61005f6100c260201b60201c565b6102e6565b5f60019054906101000a900460ff166100b2576040517f08c379a00000000000000000000000000000000000000000000000000000000081526004016100a9906102c8565b60405180910390fd5b6100c061011260201b60201c565b565b5f60019054906101000a900460ff16610110576040517f08c379a0000000000000000000000000000000000000000000000000000000008152600401610107906102c8565b60405180910390fd5b565b5f60019054906101000a900460ff16610160576040517f08c379a0000000000000000000000000000000000000000000000000000000008152600401610157906102c8565b60405180910390fd5b61017c61017161017e60201b60201c565b61018560201b60201c565b565b5f33905090565b5f60335f9054906101000a900473ffffffffffffffffffffffffffffffffffffffff1690508160335f6101000a81548173ffffffffffffffffffffffffffffffffffffffff021916908373ffffffffffffffffffffffffffffffffffffffff1602179055508173ffffffffffffffffffffffffffffffffffffffff168173ffffffffffffffffffffffffffffffffffffffff167f8be0079c531659141344cd1fd0a4f28419497f9722a3daafe3b4186f6b6457e060405160405180910390a35050565b5f82825260208201905092915050565b7f496e697469616c697a61626c653a20636f6e7472616374206973206e6f7420695f8201527f6e697469616c697a696e67000000000000000000000000000000000000000000602082015250565b5f6102b2602b83610248565b91506102bd82610258565b604082019050919050565b5f6020820190508181035f8301526102df816102a6565b9050919050565b6080516120d161031a5f395f818161042d015281816104bb015281816105b30152818161064101526106f001526120d15ff3fe6080604052600436106100c1575f3560e01c806352d1902d1161007e57806391d148541161005857806391d148541461023b578063a217fddf14610277578063d547741f146102a1578063f2fde38b146102c9576100c1565b806352d1902d146101d1578063715018a6146101fb5780638da5cb5b14610211576100c1565b806301ffc9a7146100c5578063248a9ca3146101015780632f2ff15d1461013d57806336568abe146101655780633659cfe61461018d5780634f1ef286146101b5575b5f5ffd5b3480156100d0575f5ffd5b506100eb60048036038101906100e69190611449565b6102f1565b6040516100f8919061148e565b60405180910390f35b34801561010c575f5ffd5b50610127600480360381019061012291906114da565b61036a565b6040516101349190611514565b60405180910390f35b348015610148575f5ffd5b50610163600480360381019061015e9190611587565b610387565b005b348015610170575f5ffd5b5061018b60048036038101906101869190611587565b6103a8565b005b348015610198575f5ffd5b506101b360048036038101906101ae91906115c5565b61042b565b005b6101cf60048036038101906101ca919061172c565b6105b1565b005b3480156101dc575f5ffd5b506101e56106ed565b6040516101f29190611514565b60405180910390f35b348015610206575f5ffd5b5061020f6107a4565b005b34801561021c575f5ffd5b506102256107b7565b6040516102329190611795565b60405180910390f35b348015610246575f5ffd5b50610261600480360381019061025c9190611587565b6107df565b60405161026e919061148e565b60405180910390f35b348015610282575f5ffd5b5061028b610843565b6040516102989190611514565b60405180910390f35b3480156102ac575f5ffd5b506102c760048036038101906102c29190611587565b610849565b005b3480156102d4575f5ffd5b506102ef60048036038101906102ea91906115c5565b61086a565b005b5f7f7965db0b000000000000000000000000000000000000000000000000000000007bffffffffffffffffffffffffffffffffffffffffffffffffffffffff1916827bffffffffffffffffffffffffffffffffffffffffffffffffffffffff191614806103635750610362826108ec565b5b9050919050565b5f60975f8381526020019081526020015f20600101549050919050565b6103908261036a565b61039981610955565b6103a38383610969565b505050565b6103b0610a44565b73ffffffffffffffffffffffffffffffffffffffff168173ffffffffffffffffffffffffffffffffffffffff161461041d576040517f08c379a00000000000000000000000000000000000000000000000000000000081526004016104149061182e565b60405180910390fd5b6104278282610a4b565b5050565b7f000000000000000000000000000000000000000000000000000000000000000073ffffffffffffffffffffffffffffffffffffffff163073ffffffffffffffffffffffffffffffffffffffff16036104b9576040517f08c379a00000000000000000000000000000000000000000000000000000000081526004016104b0906118bc565b60405180910390fd5b7f000000000000000000000000000000000000000000000000000000000000000073ffffffffffffffffffffffffffffffffffffffff166104f8610b26565b73ffffffffffffffffffffffffffffffffffffffff161461054e576040517f08c379a00000000000000000000000000000000000000000000000000000000081526004016105459061194a565b60405180910390fd5b61055781610b79565b6105ae815f67ffffffffffffffff81111561057557610574611608565b5b6040519080825280601f01601f1916602001820160405280156105a75781602001600182028036833780820191505090505b505f610b7c565b50565b7f000000000000000000000000000000000000000000000000000000000000000073ffffffffffffffffffffffffffffffffffffffff163073ffffffffffffffffffffffffffffffffffffffff160361063f576040517f08c379a0000000000000000000000000000000000000000000000000000000008152600401610636906118bc565b60405180910390fd5b7f000000000000000000000000000000000000000000000000000000000000000073ffffffffffffffffffffffffffffffffffffffff1661067e610b26565b73ffffffffffffffffffffffffffffffffffffffff16146106d4576040517f08c379a00000000000000000000000000000000000000000000000000000000081526004016106cb9061194a565b60405180910390fd5b6106dd82610b79565b6106e982826001610b7c565b5050565b5f7f000000000000000000000000000000000000000000000000000000000000000073ffffffffffffffffffffffffffffffffffffffff163073ffffffffffffffffffffffffffffffffffffffff161461077c576040517f08c379a0000000000000000000000000000000000000000000000000000000008152600401610773906119d8565b60405180910390fd5b7f360894a13ba1a3210667c828492db98dca3e2076cc3735a920a3ca505d382bbc5f1b905090565b6107ac610ce6565b6107b55f610d64565b565b5f60335f9054906101000a900473ffffffffffffffffffffffffffffffffffffffff16905090565b5f60975f8481526020019081526020015f205f015f8373ffffffffffffffffffffffffffffffffffffffff1673ffffffffffffffffffffffffffffffffffffffff1681526020019081526020015f205f9054906101000a900460ff16905092915050565b5f5f1b81565b6108528261036a565b61085b81610955565b6108658383610a4b565b505050565b610872610ce6565b5f73ffffffffffffffffffffffffffffffffffffffff168173ffffffffffffffffffffffffffffffffffffffff16036108e0576040517f08c379a00000000000000000000000000000000000000000000000000000000081526004016108d790611a66565b60405180910390fd5b6108e981610d64565b50565b5f7f01ffc9a7000000000000000000000000000000000000000000000000000000007bffffffffffffffffffffffffffffffffffffffffffffffffffffffff1916827bffffffffffffffffffffffffffffffffffffffffffffffffffffffff1916149050919050565b61096681610961610a44565b610e27565b50565b61097382826107df565b610a4057600160975f8481526020019081526020015f205f015f8373ffffffffffffffffffffffffffffffffffffffff1673ffffffffffffffffffffffffffffffffffffffff1681526020019081526020015f205f6101000a81548160ff0219169083151502179055506109e5610a44565b73ffffffffffffffffffffffffffffffffffffffff168173ffffffffffffffffffffffffffffffffffffffff16837f2f8788117e7eff1d82e926ec794901d17c78024a50270940304540a733656f0d60405160405180910390a45b5050565b5f33905090565b610a5582826107df565b15610b22575f60975f8481526020019081526020015f205f015f8373ffffffffffffffffffffffffffffffffffffffff1673ffffffffffffffffffffffffffffffffffffffff1681526020019081526020015f205f6101000a81548160ff021916908315150217905550610ac7610a44565b73ffffffffffffffffffffffffffffffffffffffff168173ffffffffffffffffffffffffffffffffffffffff16837ff6391f5c32d9c69d2a47ea670b442974b53935d1edc7fd64eb21e047a839171b60405160405180910390a45b5050565b5f610b527f360894a13ba1a3210667c828492db98dca3e2076cc3735a920a3ca505d382bbc5f1b610eab565b5f015f9054906101000a900473ffffffffffffffffffffffffffffffffffffffff16905090565b50565b610ba77f4910fdfa16fed3260ed0e7147f7cc6da11a60208b5b9406d12a635614ffd91435f1b610eb4565b5f015f9054906101000a900460ff1615610bc957610bc483610ebd565b610ce1565b8273ffffffffffffffffffffffffffffffffffffffff166352d1902d6040518163ffffffff1660e01b8152600401602060405180830381865afa925050508015610c3157506040513d601f19601f82011682018060405250810190610c2e9190611a98565b60015b610c70576040517f08c379a0000000000000000000000000000000000000000000000000000000008152600401610c6790611b33565b60405180910390fd5b7f360894a13ba1a3210667c828492db98dca3e2076cc3735a920a3ca505d382bbc5f1b8114610cd4576040517f08c379a0000000000000000000000000000000000000000000000000000000008152600401610ccb90611bc1565b60405180910390fd5b50610ce0838383610f73565b5b505050565b610cee610a44565b73ffffffffffffffffffffffffffffffffffffffff16610d0c6107b7565b73ffffffffffffffffffffffffffffffffffffffff1614610d62576040517f08c379a0000000000000000000000000000000000000000000000000000000008152600401610d5990611c29565b60405180910390fd5b565b5f60335f9054906101000a900473ffffffffffffffffffffffffffffffffffffffff1690508160335f6101000a81548173ffffffffffffffffffffffffffffffffffffffff021916908373ffffffffffffffffffffffffffffffffffffffff1602179055508173ffffffffffffffffffffffffffffffffffffffff168173ffffffffffffffffffffffffffffffffffffffff167f8be0079c531659141344cd1fd0a4f28419497f9722a3daafe3b4186f6b6457e060405160405180910390a35050565b610e3182826107df565b610ea757610e3e81610f9e565b610e4b835f1c6020610fcb565b604051602001610e5c929190611d2d565b6040516020818303038152906040526040517f08c379a0000000000000000000000000000000000000000000000000000000008152600401610e9e9190611d9e565b60405180910390fd5b5050565b5f819050919050565b5f819050919050565b610ec681611200565b610f05576040517f08c379a0000000000000000000000000000000000000000000000000000000008152600401610efc90611e2e565b60405180910390fd5b80610f317f360894a13ba1a3210667c828492db98dca3e2076cc3735a920a3ca505d382bbc5f1b610eab565b5f015f6101000a81548173ffffffffffffffffffffffffffffffffffffffff021916908373ffffffffffffffffffffffffffffffffffffffff16021790555050565b610f7c83611222565b5f82511180610f885750805b15610f9957610f978383611271565b505b505050565b6060610fc48273ffffffffffffffffffffffffffffffffffffffff16601460ff16610fcb565b9050919050565b60605f6002836002610fdd9190611e82565b610fe79190611ec3565b67ffffffffffffffff81111561100057610fff611608565b5b6040519080825280601f01601f1916602001820160405280156110325781602001600182028036833780820191505090505b5090507f3000000000000000000000000000000000000000000000000000000000000000815f8151811061106957611068611ef6565b5b60200101907effffffffffffffffffffffffffffffffffffffffffffffffffffffffffffff191690815f1a9053507f7800000000000000000000000000000000000000000000000000000000000000816001815181106110cc576110cb611ef6565b5b60200101907effffffffffffffffffffffffffffffffffffffffffffffffffffffffffffff191690815f1a9053505f600184600261110a9190611e82565b6111149190611ec3565b90505b60018111156111b3577f3031323334353637383961626364656600000000000000000000000000000000600f86166010811061115657611155611ef6565b5b1a60f81b82828151811061116d5761116c611ef6565b5b60200101907effffffffffffffffffffffffffffffffffffffffffffffffffffffffffffff191690815f1a905350600485901c9450806111ac90611f23565b9050611117565b505f84146111f6576040517f08c379a00000000000000000000000000000000000000000000000000000000081526004016111ed90611f94565b60405180910390fd5b8091505092915050565b5f5f8273ffffffffffffffffffffffffffffffffffffffff163b119050919050565b61122b81610ebd565b8073ffffffffffffffffffffffffffffffffffffffff167fbc7cd75a20ee27fd9adebab32041f755214dbc6bffa90cc0225b39da2e5c2d3b60405160405180910390a250565b606061129683836040518060600160405280602781526020016120756027913961129e565b905092915050565b60605f5f8573ffffffffffffffffffffffffffffffffffffffff16856040516112c79190611ff6565b5f60405180830381855af49150503d805f81146112ff576040519150601f19603f3d011682016040523d82523d5f602084013e611304565b606091505b509150915061131586838387611320565b925050509392505050565b60608315611381575f8351036113795761133985611200565b611378576040517f08c379a000000000000000000000000000000000000000000000000000000000815260040161136f90612056565b60405180910390fd5b5b82905061138c565b61138b8383611394565b5b949350505050565b5f825111156113a65781518083602001fd5b806040517f08c379a00000000000000000000000000000000000000000000000000000000081526004016113da9190611d9e565b60405180910390fd5b5f604051905090565b5f5ffd5b5f5ffd5b5f7fffffffff0000000000000000000000000000000000000000000000000000000082169050919050565b611428816113f4565b8114611432575f5ffd5b50565b5f813590506114438161141f565b92915050565b5f6020828403121561145e5761145d6113ec565b5b5f61146b84828501611435565b91505092915050565b5f8115159050919050565b61148881611474565b82525050565b5f6020820190506114a15f83018461147f565b92915050565b5f819050919050565b6114b9816114a7565b81146114c3575f5ffd5b50565b5f813590506114d4816114b0565b92915050565b5f602082840312156114ef576114ee6113ec565b5b5f6114fc848285016114c6565b91505092915050565b61150e816114a7565b82525050565b5f6020820190506115275f830184611505565b92915050565b5f73ffffffffffffffffffffffffffffffffffffffff82169050919050565b5f6115568261152d565b9050919050565b6115668161154c565b8114611570575f5ffd5b50565b5f813590506115818161155d565b92915050565b5f5f6040838503121561159d5761159c6113ec565b5b5f6115aa858286016114c6565b92505060206115bb85828601611573565b9150509250929050565b5f602082840312156115da576115d96113ec565b5b5f6115e784828501611573565b91505092915050565b5f5ffd5b5f5ffd5b5f601f19601f8301169050919050565b7f4e487b71000000000000000000000000000000000000000000000000000000005f52604160045260245ffd5b61163e826115f8565b810181811067ffffffffffffffff8211171561165d5761165c611608565b5b80604052505050565b5f61166f6113e3565b905061167b8282611635565b919050565b5f67ffffffffffffffff82111561169a57611699611608565b5b6116a3826115f8565b9050602081019050919050565b828183375f83830152505050565b5f6116d06116cb84611680565b611666565b9050828152602081018484840111156116ec576116eb6115f4565b5b6116f78482856116b0565b509392505050565b5f82601f830112611713576117126115f0565b5b81356117238482602086016116be565b91505092915050565b5f5f60408385031215611742576117416113ec565b5b5f61174f85828601611573565b925050602083013567ffffffffffffffff8111156117705761176f6113f0565b5b61177c858286016116ff565b9150509250929050565b61178f8161154c565b82525050565b5f6020820190506117a85f830184611786565b92915050565b5f82825260208201905092915050565b7f416363657373436f6e74726f6c3a2063616e206f6e6c792072656e6f756e63655f8201527f20726f6c657320666f722073656c660000000000000000000000000000000000602082015250565b5f611818602f836117ae565b9150611823826117be565b604082019050919050565b5f6020820190508181035f8301526118458161180c565b9050919050565b7f46756e6374696f6e206d7573742062652063616c6c6564207468726f756768205f8201527f64656c656761746563616c6c0000000000000000000000000000000000000000602082015250565b5f6118a6602c836117ae565b91506118b18261184c565b604082019050919050565b5f6020820190508181035f8301526118d38161189a565b9050919050565b7f46756e6374696f6e206d7573742062652063616c6c6564207468726f756768205f8201527f6163746976652070726f78790000000000000000000000000000000000000000602082015250565b5f611934602c836117ae565b915061193f826118da565b604082019050919050565b5f6020820190508181035f83015261196181611928565b9050919050565b7f555550535570677261646561626c653a206d757374206e6f742062652063616c5f8201527f6c6564207468726f7567682064656c656761746563616c6c0000000000000000602082015250565b5f6119c26038836117ae565b91506119cd82611968565b604082019050919050565b5f6020820190508181035f8301526119ef816119b6565b9050919050565b7f4f776e61626c653a206e6577206f776e657220697320746865207a65726f20615f8201527f6464726573730000000000000000000000000000000000000000000000000000602082015250565b5f611a506026836117ae565b9150611a5b826119f6565b604082019050919050565b5f6020820190508181035f830152611a7d81611a44565b9050919050565b5f81519050611a92816114b0565b92915050565b5f60208284031215611aad57611aac6113ec565b5b5f611aba84828501611a84565b91505092915050565b7f45524331393637557067726164653a206e657720696d706c656d656e746174695f8201527f6f6e206973206e6f742055555053000000000000000000000000000000000000602082015250565b5f611b1d602e836117ae565b9150611b2882611ac3565b604082019050919050565b5f6020820190508181035f830152611b4a81611b11565b9050919050565b7f45524331393637557067726164653a20756e737570706f727465642070726f785f8201527f6961626c65555549440000000000000000000000000000000000000000000000602082015250565b5f611bab6029836117ae565b9150611bb682611b51565b604082019050919050565b5f6020820190508181035f830152611bd881611b9f565b9050919050565b7f4f776e61626c653a2063616c6c6572206973206e6f7420746865206f776e65725f82015250565b5f611c136020836117ae565b9150611c1e82611bdf565b602082019050919050565b5f6020820190508181035f830152611c4081611c07565b9050919050565b5f81905092915050565b7f416363657373436f6e74726f6c3a206163636f756e74200000000000000000005f82015250565b5f611c85601783611c47565b9150611c9082611c51565b601782019050919050565b5f81519050919050565b8281835e5f83830152505050565b5f611cbd82611c9b565b611cc78185611c47565b9350611cd7818560208601611ca5565b80840191505092915050565b7f206973206d697373696e6720726f6c65200000000000000000000000000000005f82015250565b5f611d17601183611c47565b9150611d2282611ce3565b601182019050919050565b5f611d3782611c79565b9150611d438285611cb3565b9150611d4e82611d0b565b9150611d5a8284611cb3565b91508190509392505050565b5f611d7082611c9b565b611d7a81856117ae565b9350611d8a818560208601611ca5565b611d93816115f8565b840191505092915050565b5f6020820190508181035f830152611db68184611d66565b905092915050565b7f455243313936373a206e657720696d706c656d656e746174696f6e206973206e5f8201527f6f74206120636f6e747261637400000000000000000000000000000000000000602082015250565b5f611e18602d836117ae565b9150611e2382611dbe565b604082019050919050565b5f6020820190508181035f830152611e4581611e0c565b9050919050565b5f819050919050565b7f4e487b71000000000000000000000000000000000000000000000000000000005f52601160045260245ffd5b5f611e8c82611e4c565b9150611e9783611e4c565b9250828202611ea581611e4c565b91508282048414831517611ebc57611ebb611e55565b5b5092915050565b5f611ecd82611e4c565b9150611ed883611e4c565b9250828201905080821115611ef057611eef611e55565b5b92915050565b7f4e487b71000000000000000000000000000000000000000000000000000000005f52603260045260245ffd5b5f611f2d82611e4c565b91505f8203611f3f57611f3e611e55565b5b600182039050919050565b7f537472696e67733a20686578206c656e67746820696e73756666696369656e745f82015250565b5f611f7e6020836117ae565b9150611f8982611f4a565b602082019050919050565b5f6020820190508181035f830152611fab81611f72565b9050919050565b5f81519050919050565b5f81905092915050565b5f611fd082611fb2565b611fda8185611fbc565b9350611fea818560208601611ca5565b80840191505092915050565b5f6120018284611fc6565b915081905092915050565b7f416464726573733a2063616c6c20746f206e6f6e2d636f6e74726163740000005f82015250565b5f612040601d836117ae565b915061204b8261200c565b602082019050919050565b5f6020820190508181035f83015261206d81612034565b905091905056fe416464726573733a206c6f772d6c6576656c2064656c65676174652063616c6c206661696c6564a26469706673582212204a81f561c7f9ea1769f3272ea16907ca1c73e7cb0767d569d6e2195262ea22ad64736f6c634300081e0033","linkReferences":{}},"methodIdentifiers":{"DEFAULT_ADMIN_ROLE()":"a217fddf","getRoleAdmin(bytes32)":"248a9ca3","grantRole(bytes32,address)":"2f2ff15d","hasRole(bytes32,address)":"91d14854","owner()":"8da5cb5b","proxiableUUID()":"52d1902d","renounceOwnership()":"715018a6","renounceRole(bytes32,address)":"36568abe","revokeRole(bytes32,address)":"d547741f","supportsInterface(bytes4)":"01ffc9a7","transferOwnership(address)":"f2fde38b","upgradeTo(address)":"3659cfe6","upgradeToAndCall(address,bytes)":"4f1ef286"},"id":26}