{"abi":[{"type":"constructor","inputs":[],"stateMutability":"nonpayable"},{"type":"function","name":"DEFAULT_ADMIN_ROLE","inputs":[],"outputs":[{"name":"","type":"bytes32","internalType":"bytes32"}],"stateMutability":"view"},{"type":"function","name":"checkUpkeep","inputs":[{"name":"checkData","type":"bytes","internalType":"bytes"}],"outputs":[{"name":"upkeepNeeded","type":"bool","internalType":"bool"},{"name":"performData","type":"bytes","internalType":"bytes"}],"stateMutability":"nonpayable"},{"type":"function","name":"getRoleAdmin","inputs":[{"name":"role","type":"bytes32","internalType":"bytes32"}],"outputs":[{"name":"","type":"bytes32","internalType":"bytes32"}],"stateMutability":"view"},{"type":"function","name":"grantRole","inputs":[{"name":"role","type":"bytes32","internalType":"bytes32"},{"name":"account","type":"address","internalType":"address"}],"outputs":[],"stateMutability":"nonpayable"},{"type":"function","name":"hasRole","inputs":[{"name":"role","type":"bytes32","internalType":"bytes32"},{"name":"account","type":"address","internalType":"address"}],"outputs":[{"name":"","type":"bool","internalType":"bool"}],"stateMutability":"view"},{"type":"function","name":"owner","inputs":[],"outputs":[{"name":"","type":"address","internalType":"address"}],"stateMutability":"view"},{"type":"function","name":"performUpkeep","inputs":[{"name":"performData","type":"bytes","internalType":"bytes"}],"outputs":[],"stateMutability":"nonpayable"},{"type":"function","name":"proxiableUUID","inputs":[],"outputs":[{"name":"","type":"bytes32","internalType":"bytes32"}],"stateMutability":"view"},{"type":"function","name":"renounceOwnership","inputs":[],"outputs":[],"stateMutability":"nonpayable"},{"type":"function","name":"renounceRole","inputs":[{"name":"role","type":"bytes32","internalType":"bytes32"},{"name":"account","type":"address","internalType":"address"}],"outputs":[],"stateMutability":"nonpayable"},{"type":"function","name":"revokeRole","inputs":[{"name":"role","type":"bytes32","internalType":"bytes32"},{"name":"account","type":"address","internalType":"address"}],"outputs":[],"stateMutability":"nonpayable"},{"type":"function","name":"supportsInterface","inputs":[{"name":"interfaceId","type":"bytes4","internalType":"bytes4"}],"outputs":[{"name":"","type":"bool","internalType":"bool"}],"stateMutability":"view"},{"type":"function","name":"transferOwnership","inputs":[{"name":"newOwner","type":"address","internalType":"address"}],"outputs":[],"stateMutability":"nonpayable"},{"type":"function","name":"upgradeTo","inputs":[{"name":"newImplementation","type":"address","internalType":"address"}],"outputs":[],"stateMutability":"nonpayable"},{"type":"function","name":"upgradeToAndCall","inputs":[{"name":"newImplementation","type":"address","internalType":"address"},{"name":"data","type":"bytes","internalType":"bytes"}],"outputs":[],"stateMutability":"payable"},{"type":"event","name":"AdminChanged","inputs":[{"name":"previousAdmin","type":"address","indexed":false,"internalType":"address"},{"name":"newAdmin","type":"address","indexed":false,"internalType":"address"}],"anonymous":false},{"type":"event","name":"BeaconUpgraded","inputs":[{"name":"beacon","type":"address","indexed":true,"internalType":"address"}],"anonymous":false},{"type":"event","name":"Initialized","inputs":[{"name":"version","type":"uint8","indexed":false,"internalType":"uint8"}],"anonymous":false},{"type":"event","name":"OwnershipTransferred","inputs":[{"name":"previousOwner","type":"address","indexed":true,"internalType":"address"},{"name":"newOwner","type":"address","indexed":true,"internalType":"address"}],"anonymous":false},{"type":"event","name":"RoleAdminChanged","inputs":[{"name":"role","type":"bytes32","indexed":true,"internalType":"bytes32"},{"name":"previousAdminRole","type":"bytes32","indexed":true,"internalType":"bytes32"},{"name":"newAdminRole","type":"bytes32","indexed":true,"internalType":"bytes32"}],"anonymous":false},{"type":"event","name":"RoleGranted","inputs":[{"name":"role","type":"bytes32","indexed":true,"internalType":"bytes32"},{"name":"account","type":"address","indexed":true,"internalType":"address"},{"name":"sender","type":"address","indexed":true,"internalType":"address"}],"anonymous":false},{"type":"event","name":"RoleRevoked","inputs":[{"name":"role","type":"bytes32","indexed":true,"internalType":"bytes32"},{"name":"account","type":"address","indexed":true,"internalType":"address"},{"name":"sender","type":"address","indexed":true,"internalType":"address"}],"anonymous":false},{"type":"event","name":"Upgraded","inputs":[{"name":"implementation","type":"address","indexed":true,"internalType":"address"}],"anonymous":false}],"bytecode":{"object":"0x60a06040523073ffffffffffffffffffffffffffffffffffffffff1660809073ffffffffffffffffffffffffffffffffffffffff16815250348015610042575f5ffd5b5061005161006460201b60201c565b61005f6100c260201b60201c565b6102e6565b5f60019054906101000a900460ff166100b2576040517f08c379a00000000000000000000000000000000000000000000000000000000081526004016100a9906102c8565b60405180910390fd5b6100c061011260201b60201c565b565b5f60019054906101000a900460ff16610110576040517f08c379a0000000000000000000000000000000000000000000000000000000008152600401610107906102c8565b60405180910390fd5b565b5f60019054906101000a900460ff16610160576040517f08c379a0000000000000000000000000000000000000000000000000000000008152600401610157906102c8565b60405180910390fd5b61017c61017161017e60201b60201c565b61018560201b60201c565b565b5f33905090565b5f60335f9054906101000a900473ffffffffffffffffffffffffffffffffffffffff1690508160335f6101000a81548173ffffffffffffffffffffffffffffffffffffffff021916908373ffffffffffffffffffffffffffffffffffffffff1602179055508173ffffffffffffffffffffffffffffffffffffffff168173ffffffffffffffffffffffffffffffffffffffff167f8be0079c531659141344cd1fd0a4f28419497f9722a3daafe3b4186f6b6457e060405160405180910390a35050565b5f82825260208201905092915050565b7f496e697469616c697a61626c653a20636f6e7472616374206973206e6f7420695f8201527f6e697469616c697a696e67000000000000000000000000000000000000000000602082015250565b5f6102b2602b83610248565b91506102bd82610258565b604082019050919050565b5f6020820190508181035f8301526102df816102a6565b9050919050565b60805161228861031a5f395f81816104b80152818161054601528181610642015281816106d0015261077f01526122885ff3fe6080604052600436106100e7575f3560e01c806352d1902d1161008957806391d148541161005857806391d14854146102c6578063a217fddf14610302578063d547741f1461032c578063f2fde38b14610354576100e7565b806352d1902d1461021f5780636e04ff0d14610249578063715018a6146102865780638da5cb5b1461029c576100e7565b806336568abe116100c557806336568abe1461018b5780633659cfe6146101b35780634585e33b146101db5780634f1ef28614610203576100e7565b806301ffc9a7146100eb578063248a9ca3146101275780632f2ff15d14610163575b5f5ffd5b3480156100f6575f5ffd5b50610111600480360381019061010c91906114e2565b61037c565b60405161011e9190611527565b60405180910390f35b348015610132575f5ffd5b5061014d60048036038101906101489190611573565b6103f5565b60405161015a91906115ad565b60405180910390f35b34801561016e575f5ffd5b5061018960048036038101906101849190611620565b610412565b005b348015610196575f5ffd5b506101b160048036038101906101ac9190611620565b610433565b005b3480156101be575f5ffd5b506101d960048036038101906101d4919061165e565b6104b6565b005b3480156101e6575f5ffd5b5061020160048036038101906101fc91906116ea565b61063c565b005b61021d6004803603810190610218919061186d565b610640565b005b34801561022a575f5ffd5b5061023361077c565b60405161024091906115ad565b60405180910390f35b348015610254575f5ffd5b5061026f600480360381019061026a91906116ea565b610833565b60405161027d929190611927565b60405180910390f35b348015610291575f5ffd5b5061029a61083d565b005b3480156102a7575f5ffd5b506102b0610850565b6040516102bd9190611964565b60405180910390f35b3480156102d1575f5ffd5b506102ec60048036038101906102e79190611620565b610878565b6040516102f99190611527565b60405180910390f35b34801561030d575f5ffd5b506103166108dc565b60405161032391906115ad565b60405180910390f35b348015610337575f5ffd5b50610352600480360381019061034d9190611620565b6108e2565b005b34801561035f575f5ffd5b5061037a6004803603810190610375919061165e565b610903565b005b5f7f7965db0b000000000000000000000000000000000000000000000000000000007bffffffffffffffffffffffffffffffffffffffffffffffffffffffff1916827bffffffffffffffffffffffffffffffffffffffffffffffffffffffff191614806103ee57506103ed82610985565b5b9050919050565b5f60975f8381526020019081526020015f20600101549050919050565b61041b826103f5565b610424816109ee565b61042e8383610a02565b505050565b61043b610add565b73ffffffffffffffffffffffffffffffffffffffff168173ffffffffffffffffffffffffffffffffffffffff16146104a8576040517f08c379a000000000000000000000000000000000000000000000000000000000815260040161049f906119fd565b60405180910390fd5b6104b28282610ae4565b5050565b7f000000000000000000000000000000000000000000000000000000000000000073ffffffffffffffffffffffffffffffffffffffff163073ffffffffffffffffffffffffffffffffffffffff1603610544576040517f08c379a000000000000000000000000000000000000000000000000000000000815260040161053b90611a8b565b60405180910390fd5b7f000000000000000000000000000000000000000000000000000000000000000073ffffffffffffffffffffffffffffffffffffffff16610583610bbf565b73ffffffffffffffffffffffffffffffffffffffff16146105d9576040517f08c379a00000000000000000000000000000000000000000000000000000000081526004016105d090611b19565b60405180910390fd5b6105e281610c12565b610639815f67ffffffffffffffff811115610600576105ff611749565b5b6040519080825280601f01601f1916602001820160405280156106325781602001600182028036833780820191505090505b505f610c15565b50565b5050565b7f000000000000000000000000000000000000000000000000000000000000000073ffffffffffffffffffffffffffffffffffffffff163073ffffffffffffffffffffffffffffffffffffffff16036106ce576040517f08c379a00000000000000000000000000000000000000000000000000000000081526004016106c590611a8b565b60405180910390fd5b7f000000000000000000000000000000000000000000000000000000000000000073ffffffffffffffffffffffffffffffffffffffff1661070d610bbf565b73ffffffffffffffffffffffffffffffffffffffff1614610763576040517f08c379a000000000000000000000000000000000000000000000000000000000815260040161075a90611b19565b60405180910390fd5b61076c82610c12565b61077882826001610c15565b5050565b5f7f000000000000000000000000000000000000000000000000000000000000000073ffffffffffffffffffffffffffffffffffffffff163073ffffffffffffffffffffffffffffffffffffffff161461080b576040517f08c379a000000000000000000000000000000000000000000000000000000000815260040161080290611ba7565b60405180910390fd5b7f360894a13ba1a3210667c828492db98dca3e2076cc3735a920a3ca505d382bbc5f1b905090565b5f60609250929050565b610845610d7f565b61084e5f610dfd565b565b5f60335f9054906101000a900473ffffffffffffffffffffffffffffffffffffffff16905090565b5f60975f8481526020019081526020015f205f015f8373ffffffffffffffffffffffffffffffffffffffff1673ffffffffffffffffffffffffffffffffffffffff1681526020019081526020015f205f9054906101000a900460ff16905092915050565b5f5f1b81565b6108eb826103f5565b6108f4816109ee565b6108fe8383610ae4565b505050565b61090b610d7f565b5f73ffffffffffffffffffffffffffffffffffffffff168173ffffffffffffffffffffffffffffffffffffffff1603610979576040517f08c379a000000000000000000000000000000000000000000000000000000000815260040161097090611c35565b60405180910390fd5b61098281610dfd565b50565b5f7f01ffc9a7000000000000000000000000000000000000000000000000000000007bffffffffffffffffffffffffffffffffffffffffffffffffffffffff1916827bffffffffffffffffffffffffffffffffffffffffffffffffffffffff1916149050919050565b6109ff816109fa610add565b610ec0565b50565b610a0c8282610878565b610ad957600160975f8481526020019081526020015f205f015f8373ffffffffffffffffffffffffffffffffffffffff1673ffffffffffffffffffffffffffffffffffffffff1681526020019081526020015f205f6101000a81548160ff021916908315150217905550610a7e610add565b73ffffffffffffffffffffffffffffffffffffffff168173ffffffffffffffffffffffffffffffffffffffff16837f2f8788117e7eff1d82e926ec794901d17c78024a50270940304540a733656f0d60405160405180910390a45b5050565b5f33905090565b610aee8282610878565b15610bbb575f60975f8481526020019081526020015f205f015f8373ffffffffffffffffffffffffffffffffffffffff1673ffffffffffffffffffffffffffffffffffffffff1681526020019081526020015f205f6101000a81548160ff021916908315150217905550610b60610add565b73ffffffffffffffffffffffffffffffffffffffff168173ffffffffffffffffffffffffffffffffffffffff16837ff6391f5c32d9c69d2a47ea670b442974b53935d1edc7fd64eb21e047a839171b60405160405180910390a45b5050565b5f610beb7f360894a13ba1a3210667c828492db98dca3e2076cc3735a920a3ca505d382bbc5f1b610f44565b5f015f9054906101000a900473ffffffffffffffffffffffffffffffffffffffff16905090565b50565b610c407f4910fdfa16fed3260ed0e7147f7cc6da11a60208b5b9406d12a635614ffd91435f1b610f4d565b5f015f9054906101000a900460ff1615610c6257610c5d83610f56565b610d7a565b8273ffffffffffffffffffffffffffffffffffffffff166352d1902d6040518163ffffffff1660e01b8152600401602060405180830381865afa925050508015610cca57506040513d601f19601f82011682018060405250810190610cc79190611c67565b60015b610d09576040517f08c379a0000000000000000000000000000000000000000000000000000000008152600401610d0090611d02565b60405180910390fd5b7f360894a13ba1a3210667c828492db98dca3e2076cc3735a920a3ca505d382bbc5f1b8114610d6d576040517f08c379a0000000000000000000000000000000000000000000000000000000008152600401610d6490611d90565b60405180910390fd5b50610d7983838361100c565b5b505050565b610d87610add565b73ffffffffffffffffffffffffffffffffffffffff16610da5610850565b73ffffffffffffffffffffffffffffffffffffffff1614610dfb576040517f08c379a0000000000000000000000000000000000000000000000000000000008152600401610df290611df8565b60405180910390fd5b565b5f60335f9054906101000a900473ffffffffffffffffffffffffffffffffffffffff1690508160335f6101000a81548173ffffffffffffffffffffffffffffffffffffffff021916908373ffffffffffffffffffffffffffffffffffffffff1602179055508173ffffffffffffffffffffffffffffffffffffffff168173ffffffffffffffffffffffffffffffffffffffff167f8be0079c531659141344cd1fd0a4f28419497f9722a3daafe3b4186f6b6457e060405160405180910390a35050565b610eca8282610878565b610f4057610ed781611037565b610ee4835f1c6020611064565b604051602001610ef5929190611eee565b6040516020818303038152906040526040517f08c379a0000000000000000000000000000000000000000000000000000000008152600401610f379190611f5f565b60405180910390fd5b5050565b5f819050919050565b5f819050919050565b610f5f81611299565b610f9e576040517f08c379a0000000000000000000000000000000000000000000000000000000008152600401610f9590611fef565b60405180910390fd5b80610fca7f360894a13ba1a3210667c828492db98dca3e2076cc3735a920a3ca505d382bbc5f1b610f44565b5f015f6101000a81548173ffffffffffffffffffffffffffffffffffffffff021916908373ffffffffffffffffffffffffffffffffffffffff16021790555050565b611015836112bb565b5f825111806110215750805b1561103257611030838361130a565b505b505050565b606061105d8273ffffffffffffffffffffffffffffffffffffffff16601460ff16611064565b9050919050565b60605f60028360026110769190612043565b6110809190612084565b67ffffffffffffffff81111561109957611098611749565b5b6040519080825280601f01601f1916602001820160405280156110cb5781602001600182028036833780820191505090505b5090507f3000000000000000000000000000000000000000000000000000000000000000815f81518110611102576111016120b7565b5b60200101907effffffffffffffffffffffffffffffffffffffffffffffffffffffffffffff191690815f1a9053507f780000000000000000000000000000000000000000000000000000000000000081600181518110611165576111646120b7565b5b60200101907effffffffffffffffffffffffffffffffffffffffffffffffffffffffffffff191690815f1a9053505f60018460026111a39190612043565b6111ad9190612084565b90505b600181111561124c577f3031323334353637383961626364656600000000000000000000000000000000600f8616601081106111ef576111ee6120b7565b5b1a60f81b828281518110611206576112056120b7565b5b60200101907effffffffffffffffffffffffffffffffffffffffffffffffffffffffffffff191690815f1a905350600485901c945080611245906120e4565b90506111b0565b505f841461128f576040517f08c379a000000000000000000000000000000000000000000000000000000000815260040161128690612155565b60405180910390fd5b8091505092915050565b5f5f8273ffffffffffffffffffffffffffffffffffffffff163b119050919050565b6112c481610f56565b8073ffffffffffffffffffffffffffffffffffffffff167fbc7cd75a20ee27fd9adebab32041f755214dbc6bffa90cc0225b39da2e5c2d3b60405160405180910390a250565b606061132f838360405180606001604052806027815260200161222c60279139611337565b905092915050565b60605f5f8573ffffffffffffffffffffffffffffffffffffffff168560405161136091906121ad565b5f60405180830381855af49150503d805f8114611398576040519150601f19603f3d011682016040523d82523d5f602084013e61139d565b606091505b50915091506113ae868383876113b9565b925050509392505050565b6060831561141a575f835103611412576113d285611299565b611411576040517f08c379a00000000000000000000000000000000000000000000000000000000081526004016114089061220d565b60405180910390fd5b5b829050611425565b611424838361142d565b5b949350505050565b5f8251111561143f5781518083602001fd5b806040517f08c379a00000000000000000000000000000000000000000000000000000000081526004016114739190611f5f565b60405180910390fd5b5f604051905090565b5f5ffd5b5f5ffd5b5f7fffffffff0000000000000000000000000000000000000000000000000000000082169050919050565b6114c18161148d565b81146114cb575f5ffd5b50565b5f813590506114dc816114b8565b92915050565b5f602082840312156114f7576114f6611485565b5b5f611504848285016114ce565b91505092915050565b5f8115159050919050565b6115218161150d565b82525050565b5f60208201905061153a5f830184611518565b92915050565b5f819050919050565b61155281611540565b811461155c575f5ffd5b50565b5f8135905061156d81611549565b92915050565b5f6020828403121561158857611587611485565b5b5f6115958482850161155f565b91505092915050565b6115a781611540565b82525050565b5f6020820190506115c05f83018461159e565b92915050565b5f73ffffffffffffffffffffffffffffffffffffffff82169050919050565b5f6115ef826115c6565b9050919050565b6115ff816115e5565b8114611609575f5ffd5b50565b5f8135905061161a816115f6565b92915050565b5f5f6040838503121561163657611635611485565b5b5f6116438582860161155f565b92505060206116548582860161160c565b9150509250929050565b5f6020828403121561167357611672611485565b5b5f6116808482850161160c565b91505092915050565b5f5ffd5b5f5ffd5b5f5ffd5b5f5f83601f8401126116aa576116a9611689565b5b8235905067ffffffffffffffff8111156116c7576116c661168d565b5b6020830191508360018202830111156116e3576116e2611691565b5b9250929050565b5f5f60208385031215611700576116ff611485565b5b5f83013567ffffffffffffffff81111561171d5761171c611489565b5b61172985828601611695565b92509250509250929050565b5f5ffd5b5f601f19601f8301169050919050565b7f4e487b71000000000000000000000000000000000000000000000000000000005f52604160045260245ffd5b61177f82611739565b810181811067ffffffffffffffff8211171561179e5761179d611749565b5b80604052505050565b5f6117b061147c565b90506117bc8282611776565b919050565b5f67ffffffffffffffff8211156117db576117da611749565b5b6117e482611739565b9050602081019050919050565b828183375f83830152505050565b5f61181161180c846117c1565b6117a7565b90508281526020810184848401111561182d5761182c611735565b5b6118388482856117f1565b509392505050565b5f82601f83011261185457611853611689565b5b81356118648482602086016117ff565b91505092915050565b5f5f6040838503121561188357611882611485565b5b5f6118908582860161160c565b925050602083013567ffffffffffffffff8111156118b1576118b0611489565b5b6118bd85828601611840565b9150509250929050565b5f81519050919050565b5f82825260208201905092915050565b8281835e5f83830152505050565b5f6118f9826118c7565b61190381856118d1565b93506119138185602086016118e1565b61191c81611739565b840191505092915050565b5f60408201905061193a5f830185611518565b818103602083015261194c81846118ef565b90509392505050565b61195e816115e5565b82525050565b5f6020820190506119775f830184611955565b92915050565b5f82825260208201905092915050565b7f416363657373436f6e74726f6c3a2063616e206f6e6c792072656e6f756e63655f8201527f20726f6c657320666f722073656c660000000000000000000000000000000000602082015250565b5f6119e7602f8361197d565b91506119f28261198d565b604082019050919050565b5f6020820190508181035f830152611a14816119db565b9050919050565b7f46756e6374696f6e206d7573742062652063616c6c6564207468726f756768205f8201527f64656c656761746563616c6c0000000000000000000000000000000000000000602082015250565b5f611a75602c8361197d565b9150611a8082611a1b565b604082019050919050565b5f6020820190508181035f830152611aa281611a69565b9050919050565b7f46756e6374696f6e206d7573742062652063616c6c6564207468726f756768205f8201527f6163746976652070726f78790000000000000000000000000000000000000000602082015250565b5f611b03602c8361197d565b9150611b0e82611aa9565b604082019050919050565b5f6020820190508181035f830152611b3081611af7565b9050919050565b7f555550535570677261646561626c653a206d757374206e6f742062652063616c5f8201527f6c6564207468726f7567682064656c656761746563616c6c0000000000000000602082015250565b5f611b9160388361197d565b9150611b9c82611b37565b604082019050919050565b5f6020820190508181035f830152611bbe81611b85565b9050919050565b7f4f776e61626c653a206e6577206f776e657220697320746865207a65726f20615f8201527f6464726573730000000000000000000000000000000000000000000000000000602082015250565b5f611c1f60268361197d565b9150611c2a82611bc5565b604082019050919050565b5f6020820190508181035f830152611c4c81611c13565b9050919050565b5f81519050611c6181611549565b92915050565b5f60208284031215611c7c57611c7b611485565b5b5f611c8984828501611c53565b91505092915050565b7f45524331393637557067726164653a206e657720696d706c656d656e746174695f8201527f6f6e206973206e6f742055555053000000000000000000000000000000000000602082015250565b5f611cec602e8361197d565b9150611cf782611c92565b604082019050919050565b5f6020820190508181035f830152611d1981611ce0565b9050919050565b7f45524331393637557067726164653a20756e737570706f727465642070726f785f8201527f6961626c65555549440000000000000000000000000000000000000000000000602082015250565b5f611d7a60298361197d565b9150611d8582611d20565b604082019050919050565b5f6020820190508181035f830152611da781611d6e565b9050919050565b7f4f776e61626c653a2063616c6c6572206973206e6f7420746865206f776e65725f82015250565b5f611de260208361197d565b9150611ded82611dae565b602082019050919050565b5f6020820190508181035f830152611e0f81611dd6565b9050919050565b5f81905092915050565b7f416363657373436f6e74726f6c3a206163636f756e74200000000000000000005f82015250565b5f611e54601783611e16565b9150611e5f82611e20565b601782019050919050565b5f81519050919050565b5f611e7e82611e6a565b611e888185611e16565b9350611e988185602086016118e1565b80840191505092915050565b7f206973206d697373696e6720726f6c65200000000000000000000000000000005f82015250565b5f611ed8601183611e16565b9150611ee382611ea4565b601182019050919050565b5f611ef882611e48565b9150611f048285611e74565b9150611f0f82611ecc565b9150611f1b8284611e74565b91508190509392505050565b5f611f3182611e6a565b611f3b818561197d565b9350611f4b8185602086016118e1565b611f5481611739565b840191505092915050565b5f6020820190508181035f830152611f778184611f27565b905092915050565b7f455243313936373a206e657720696d706c656d656e746174696f6e206973206e5f8201527f6f74206120636f6e747261637400000000000000000000000000000000000000602082015250565b5f611fd9602d8361197d565b9150611fe482611f7f565b604082019050919050565b5f6020820190508181035f83015261200681611fcd565b9050919050565b5f819050919050565b7f4e487b71000000000000000000000000000000000000000000000000000000005f52601160045260245ffd5b5f61204d8261200d565b91506120588361200d565b92508282026120668161200d565b9150828204841483151761207d5761207c612016565b5b5092915050565b5f61208e8261200d565b91506120998361200d565b92508282019050808211156120b1576120b0612016565b5b92915050565b7f4e487b71000000000000000000000000000000000000000000000000000000005f52603260045260245ffd5b5f6120ee8261200d565b91505f8203612100576120ff612016565b5b600182039050919050565b7f537472696e67733a20686578206c656e67746820696e73756666696369656e745f82015250565b5f61213f60208361197d565b915061214a8261210b565b602082019050919050565b5f6020820190508181035f83015261216c81612133565b9050919050565b5f81905092915050565b5f612187826118c7565b6121918185612173565b93506121a18185602086016118e1565b80840191505092915050565b5f6121b8828461217d565b915081905092915050565b7f416464726573733a2063616c6c20746f206e6f6e2d636f6e74726163740000005f82015250565b5f6121f7601d8361197d565b9150612202826121c3565b602082019050919050565b5f6020820190508181035f830152612224816121eb565b905091905056fe416464726573733a206c6f772d6c6576656c2064656c65676174652063616c6c206661696c6564a26469706673582212202a3b040aaca62a5afdd0bca377e2b6b3da0c29b1d0aaab976ada15207064af2f64736f6c634300081e0033","linkReferences":{}},"methodIdentifiers":{"DEFAULT_ADMIN_ROLE()":"a217fddf","checkUpkeep(bytes)":"6e04ff0d","getRoleAdmin(bytes32)":"248a9ca3","grantRole(bytes32,address)":"2f2ff15d","hasRole(bytes32,address)":"91d14854","owner()":"8da5cb5b","performUpkeep(bytes)":"4585e33b","proxiableUUID()":"52d1902d","renounceOwnership()":"715018a6","renounceRole(bytes32,address)":"36568abe","revokeRole(bytes32,address)":"d547741f","supportsInterface(bytes4)":"01ffc9a7","transferOwnership(address)":"f2fde38b","upgradeTo(address)":"3659cfe6","upgradeToAndCall(address,bytes)":"4f1ef286"},"id":59}