{"abi":[{"type":"function","name":"checkUpkeep","inputs":[{"name":"checkData","type":"bytes","internalType":"bytes"}],"outputs":[{"name":"upkeepNeeded","type":"bool","internalType":"bool"},{"name":"performData","type":"bytes","internalType":"bytes"}],"stateMutability":"nonpayable"},{"type":"function","name":"performUpkeep","inputs":[{"name":"performData","type":"bytes","internalType":"bytes"}],"outputs":[],"stateMutability":"nonpayable"}],"bytecode":{"object":"0x6080604052348015600e575f5ffd5b506102358061001c5f395ff3fe608060405234801561000f575f5ffd5b5060043610610034575f3560e01c80634585e33b146100385780636e04ff0d14610054575b5f5ffd5b610052600480360381019061004d91906100fc565b610085565b005b61006e600480360381019061006991906100fc565b610089565b60405161007c9291906101d1565b60405180910390f35b5050565b5f60609250929050565b5f5ffd5b5f5ffd5b5f5ffd5b5f5ffd5b5f5ffd5b5f5f83601f8401126100bc576100bb61009b565b5b8235905067ffffffffffffffff8111156100d9576100d861009f565b5b6020830191508360018202830111156100f5576100f46100a3565b5b9250929050565b5f5f6020838503121561011257610111610093565b5b5f83013567ffffffffffffffff81111561012f5761012e610097565b5b61013b858286016100a7565b92509250509250929050565b5f8115159050919050565b61015b81610147565b82525050565b5f81519050919050565b5f82825260208201905092915050565b8281835e5f83830152505050565b5f601f19601f8301169050919050565b5f6101a382610161565b6101ad818561016b565b93506101bd81856020860161017b565b6101c681610189565b840191505092915050565b5f6040820190506101e45f830185610152565b81810360208301526101f68184610199565b9050939250505056fea2646970667358221220ecaac7beb453be519b964a719d5ca387286c8ccedc0480e48d594f393c5df27264736f6c634300081e0033","linkReferences":{}},"methodIdentifiers":{"checkUpkeep(bytes)":"6e04ff0d","performUpkeep(bytes)":"4585e33b"},"id":25}