{"abi":[{"type":"constructor","inputs":[],"stateMutability":"nonpayable"},{"type":"function","name":"addNewNumber","inputs":[],"outputs":[{"name":"","type":"uint256","internalType":"uint256"}],"stateMutability":"nonpayable"},{"type":"function","name":"checkUpkeep","inputs":[{"name":"checkData","type":"bytes","internalType":"bytes"}],"outputs":[{"name":"upkeepNeeded","type":"bool","internalType":"bool"},{"name":"performData","type":"bytes","internalType":"bytes"}],"stateMutability":"view"},{"type":"function","name":"modifyAutomationTime","inputs":[{"name":"startAutomationTime_","type":"uint256","internalType":"uint256"}],"outputs":[],"stateMutability":"nonpayable"},{"type":"function","name":"performUpkeep","inputs":[{"name":"performData","type":"bytes","internalType":"bytes"}],"outputs":[],"stateMutability":"nonpayable"},{"type":"error","name":"remainLastID","inputs":[]}],"bytecode":{"object":"0x6080604052348015600e575f5ffd5b50335f5f6101000a81548173ffffffffffffffffffffffffffffffffffffffff021916908373ffffffffffffffffffffffffffffffffffffffff160217905550605c6002606060201b60201c565b606b565b5f815f018190555050565b61094c806100785f395ff3fe608060405234801561000f575f5ffd5b506004361061004a575f3560e01c8063065e5d021461004e5780634585e33b1461006c5780636b2d60c9146100885780636e04ff0d146100a4575b5f5ffd5b6100566100d5565b60405161006391906104af565b60405180910390f35b6100866004803603810190610081919061053a565b610292565b005b6100a2600480360381019061009d91906105af565b610381565b005b6100be60048036038101906100b9919061053a565b610419565b6040516100cc929190610664565b60405180910390f35b5f60035f60025f015481526020019081526020015f205f9054906101000a900460ff1661012e576040517f95bac94e00000000000000000000000000000000000000000000000000000000815260040160405180910390fd5b6101386002610483565b60405180610100016040528060025f015481526020013373ffffffffffffffffffffffffffffffffffffffff1681526020015f81526020015f81526020015f151581526020015f81526020015f151581526020015f81525060045f60025f015481526020019081526020015f205f820151815f01556020820151816001015f6101000a81548173ffffffffffffffffffffffffffffffffffffffff021916908373ffffffffffffffffffffffffffffffffffffffff16021790555060408201518160020155606082015181600301556080820151816004015f6101000a81548160ff02191690831515021790555060a0820151816005015560c0820151816006015f6101000a81548160ff02191690831515021790555060e082015181600701559050505f60035f60025f015481526020019081526020015f205f6101000a81548160ff02191690831515021790555060025f0154905090565b5f82828101906102a29190610859565b9050607b8160400181815250508060045f60025f015481526020019081526020015f205f820151815f01556020820151816001015f6101000a81548173ffffffffffffffffffffffffffffffffffffffff021916908373ffffffffffffffffffffffffffffffffffffffff16021790555060408201518160020155606082015181600301556080820151816004015f6101000a81548160ff02191690831515021790555060a0820151816005015560c0820151816006015f6101000a81548160ff02191690831515021790555060e08201518160070155905050505050565b5f5f9054906101000a900473ffffffffffffffffffffffffffffffffffffffff1673ffffffffffffffffffffffffffffffffffffffff163373ffffffffffffffffffffffffffffffffffffffff161461040f576040517f08c379a0000000000000000000000000000000000000000000000000000000008152600401610406906108df565b60405180910390fd5b8060018190555050565b5f60605f60015411801561042f57504260015411155b1561047c576001915060035f60025f015481526020019081526020015f205f9054906101000a900460ff1660405160200161046a91906108fd565b60405160208183030381529060405290505b9250929050565b6001815f015f828254019250508190555050565b5f819050919050565b6104a981610497565b82525050565b5f6020820190506104c25f8301846104a0565b92915050565b5f604051905090565b5f5ffd5b5f5ffd5b5f5ffd5b5f5ffd5b5f5ffd5b5f5f83601f8401126104fa576104f96104d9565b5b8235905067ffffffffffffffff811115610517576105166104dd565b5b602083019150836001820283011115610533576105326104e1565b5b9250929050565b5f5f602083850312156105505761054f6104d1565b5b5f83013567ffffffffffffffff81111561056d5761056c6104d5565b5b610579858286016104e5565b92509250509250929050565b61058e81610497565b8114610598575f5ffd5b50565b5f813590506105a981610585565b92915050565b5f602082840312156105c4576105c36104d1565b5b5f6105d18482850161059b565b91505092915050565b5f8115159050919050565b6105ee816105da565b82525050565b5f81519050919050565b5f82825260208201905092915050565b8281835e5f83830152505050565b5f601f19601f8301169050919050565b5f610636826105f4565b61064081856105fe565b935061065081856020860161060e565b6106598161061c565b840191505092915050565b5f6040820190506106775f8301856105e5565b8181036020830152610689818461062c565b90509392505050565b5f5ffd5b7f4e487b71000000000000000000000000000000000000000000000000000000005f52604160045260245ffd5b6106cc8261061c565b810181811067ffffffffffffffff821117156106eb576106ea610696565b5b80604052505050565b5f6106fd6104c8565b905061070982826106c3565b919050565b5f73ffffffffffffffffffffffffffffffffffffffff82169050919050565b5f6107378261070e565b9050919050565b6107478161072d565b8114610751575f5ffd5b50565b5f813590506107628161073e565b92915050565b610771816105da565b811461077b575f5ffd5b50565b5f8135905061078c81610768565b92915050565b5f61010082840312156107a8576107a7610692565b5b6107b36101006106f4565b90505f6107c28482850161059b565b5f8301525060206107d584828501610754565b60208301525060406107e98482850161059b565b60408301525060606107fd8482850161059b565b60608301525060806108118482850161077e565b60808301525060a06108258482850161059b565b60a08301525060c06108398482850161077e565b60c08301525060e061084d8482850161059b565b60e08301525092915050565b5f610100828403121561086f5761086e6104d1565b5b5f61087c84828501610792565b91505092915050565b5f82825260208201905092915050565b7f696e76616c6964206f776e6572210000000000000000000000000000000000005f82015250565b5f6108c9600e83610885565b91506108d482610895565b602082019050919050565b5f6020820190508181035f8301526108f6816108bd565b9050919050565b5f6020820190506109105f8301846105e5565b9291505056fea2646970667358221220c1cbb89b2b3ca0f4d1022d6cd5d99f87539aea5542ff222f8f7faa9ce8f236f164736f6c634300081e0033","linkReferences":{}},"methodIdentifiers":{"addNewNumber()":"065e5d02","checkUpkeep(bytes)":"6e04ff0d","modifyAutomationTime(uint256)":"6b2d60c9","performUpkeep(bytes)":"4585e33b"},"id":4}